{
	"data": {
		"bytecode": {
			"linkReferences": {},
			"object": "608060405234801561000f575f5ffd5b506040518060400160405280600781526020017f506f6b6544494f000000000000000000000000000000000000000000000000008152506040518060400160405280600381526020017f504b440000000000000000000000000000000000000000000000000000000000815250815f908161008a919061031f565b50806001908161009a919061031f565b5050503360075f6101000a81548173ffffffffffffffffffffffffffffffffffffffff021916908373ffffffffffffffffffffffffffffffffffffffff1602179055506103ee565b5f81519050919050565b7f4e487b71000000000000000000000000000000000000000000000000000000005f52604160045260245ffd5b7f4e487b71000000000000000000000000000000000000000000000000000000005f52602260045260245ffd5b5f600282049050600182168061015d57607f821691505b6020821081036101705761016f610119565b5b50919050565b5f819050815f5260205f209050919050565b5f6020601f8301049050919050565b5f82821b905092915050565b5f600883026101d27fffffffffffffffffffffffffffffffffffffffffffffffffffffffffffffffff82610197565b6101dc8683610197565b95508019841693508086168417925050509392505050565b5f819050919050565b5f819050919050565b5f61022061021b610216846101f4565b6101fd565b6101f4565b9050919050565b5f819050919050565b61023983610206565b61024d61024582610227565b8484546101a3565b825550505050565b5f5f905090565b610264610255565b61026f818484610230565b505050565b5b81811015610292576102875f8261025c565b600181019050610275565b5050565b601f8211156102d7576102a881610176565b6102b184610188565b810160208510156102c0578190505b6102d46102cc85610188565b830182610274565b50505b505050565b5f82821c905092915050565b5f6102f75f19846008026102dc565b1980831691505092915050565b5f61030f83836102e8565b9150826002028217905092915050565b610328826100e2565b67ffffffffffffffff811115610341576103406100ec565b5b61034b8254610146565b610356828285610296565b5f60209050601f831160018114610387575f8415610375578287015190505b61037f8582610304565b8655506103e6565b601f19841661039586610176565b5f5b828110156103bc57848901518255600182019150602085019450602081019050610397565b868310156103d957848901516103d5601f8916826102e8565b8355505b6001600288020188555050505b505050505050565b612749806103fb5f395ff3fe608060405234801561000f575f5ffd5b5060043610610109575f3560e01c80636352211e116100a0578063a22cb4651161006f578063a22cb465146102c7578063b88d4fde146102e3578063c87b56dd146102ff578063e985e9c51461032f578063f6b12f281461035f57610109565b80636352211e1461021757806370a0823114610247578063858310791461027757806395d89b41146102a957610109565b806323b872dd116100dc57806323b872dd146101a75780632a0c5221146101c357806342842e0e146101df578063555072de146101fb57610109565b806301ffc9a71461010d57806306fdde031461013d578063081812fc1461015b578063095ea7b31461018b575b5f5ffd5b61012760048036038101906101229190611a35565b61037d565b6040516101349190611a7a565b60405180910390f35b61014561045e565b6040516101529190611b03565b60405180910390f35b61017560048036038101906101709190611b56565b6104ed565b6040516101829190611bc0565b60405180910390f35b6101a560048036038101906101a09190611c03565b610508565b005b6101c160048036038101906101bc9190611c41565b61051e565b005b6101dd60048036038101906101d89190611c91565b61061d565b005b6101f960048036038101906101f49190611c41565b610762565b005b61021560048036038101906102109190611dfb565b610781565b005b610231600480360381019061022c9190611b56565b6108a3565b60405161023e9190611bc0565b60405180910390f35b610261600480360381019061025c9190611e83565b6108b4565b60405161026e9190611ebd565b60405180910390f35b610291600480360381019061028c9190611b56565b61096a565b6040516102a093929190611ed6565b60405180910390f35b6102b1610aab565b6040516102be9190611b03565b60405180910390f35b6102e160048036038101906102dc9190611f43565b610b3b565b005b6102fd60048036038101906102f8919061201f565b610b51565b005b61031960048036038101906103149190611b56565b610b76565b6040516103269190611b03565b60405180910390f35b6103496004803603810190610344919061209f565b610bdc565b6040516103569190611a7a565b60405180910390f35b610367610c6a565b6040516103749190611bc0565b60405180910390f35b5f7f80ac58cd000000000000000000000000000000000000000000000000000000007bffffffffffffffffffffffffffffffffffffffffffffffffffffffff1916827bffffffffffffffffffffffffffffffffffffffffffffffffffffffff1916148061044757507f5b5e139f000000000000000000000000000000000000000000000000000000007bffffffffffffffffffffffffffffffffffffffffffffffffffffffff1916827bffffffffffffffffffffffffffffffffffffffffffffffffffffffff1916145b80610457575061045682610c8f565b5b9050919050565b60605f805461046c9061210a565b80601f01602080910402602001604051908101604052809291908181526020018280546104989061210a565b80156104e35780601f106104ba576101008083540402835291602001916104e3565b820191905f5260205f20905b8154815290600101906020018083116104c657829003601f168201915b5050505050905090565b5f6104f782610cf8565b5061050182610d7e565b9050919050565b61051a8282610515610db7565b610dbe565b5050565b5f73ffffffffffffffffffffffffffffffffffffffff168273ffffffffffffffffffffffffffffffffffffffff160361058e575f6040517f64a0ae920000000000000000000000000000000000000000000000000000000081526004016105859190611bc0565b60405180910390fd5b5f6105a1838361059c610db7565b610dd0565b90508373ffffffffffffffffffffffffffffffffffffffff168173ffffffffffffffffffffffffffffffffffffffff1614610617578382826040517f64283d7b00000000000000000000000000000000000000000000000000000000815260040161060e9392919061213a565b60405180910390fd5b50505050565b813373ffffffffffffffffffffffffffffffffffffffff1661063e826108a3565b73ffffffffffffffffffffffffffffffffffffffff1614610694576040517f08c379a000000000000000000000000000000000000000000000000000000000815260040161068b906121df565b60405180910390fd5b5f600684815481106106a9576106a86121fd565b5b905f5260205f20906003020190505f600684815481106106cc576106cb6121fd565b5b905f5260205f20906003020190508060010154826001015410610724576002826001015f8282546106fd9190612257565b925050819055506001816001015f8282546107189190612257565b9250508190555061075b565b6001826001015f8282546107389190612257565b925050819055506002816001015f8282546107539190612257565b925050819055505b5050505050565b61077c83838360405180602001604052805f815250610b51565b505050565b60075f9054906101000a900473ffffffffffffffffffffffffffffffffffffffff1673ffffffffffffffffffffffffffffffffffffffff163373ffffffffffffffffffffffffffffffffffffffff1614610810576040517f08c379a0000000000000000000000000000000000000000000000000000000008152600401610807906122fa565b60405180910390fd5b5f6006805490509050600660405180606001604052808681526020016001815260200184815250908060018154018082558091505060019003905f5260205f2090600302015f909190919091505f820151815f01908161087091906124b8565b5060208201518160010155604082015181600201908161089091906124b8565b50505061089d8382610fdb565b50505050565b5f6108ad82610cf8565b9050919050565b5f5f73ffffffffffffffffffffffffffffffffffffffff168273ffffffffffffffffffffffffffffffffffffffff1603610925575f6040517f89c62b6400000000000000000000000000000000000000000000000000000000815260040161091c9190611bc0565b60405180910390fd5b60035f8373ffffffffffffffffffffffffffffffffffffffff1673ffffffffffffffffffffffffffffffffffffffff1681526020019081526020015f20549050919050565b60068181548110610979575f80fd5b905f5260205f2090600302015f91509050805f0180546109989061210a565b80601f01602080910402602001604051908101604052809291908181526020018280546109c49061210a565b8015610a0f5780601f106109e657610100808354040283529160200191610a0f565b820191905f5260205f20905b8154815290600101906020018083116109f257829003601f168201915b505050505090806001015490806002018054610a2a9061210a565b80601f0160208091040260200160405190810160405280929190818152602001828054610a569061210a565b8015610aa15780601f10610a7857610100808354040283529160200191610aa1565b820191905f5260205f20905b815481529060010190602001808311610a8457829003601f168201915b5050505050905083565b606060018054610aba9061210a565b80601f0160208091040260200160405190810160405280929190818152602001828054610ae69061210a565b8015610b315780601f10610b0857610100808354040283529160200191610b31565b820191905f5260205f20905b815481529060010190602001808311610b1457829003601f168201915b5050505050905090565b610b4d610b46610db7565b8383610ff8565b5050565b610b5c84848461051e565b610b70610b67610db7565b85858585611161565b50505050565b6060610b8182610cf8565b505f610b8b61130d565b90505f815111610ba95760405180602001604052805f815250610bd4565b80610bb384611323565b604051602001610bc49291906125c1565b6040516020818303038152906040525b915050919050565b5f60055f8473ffffffffffffffffffffffffffffffffffffffff1673ffffffffffffffffffffffffffffffffffffffff1681526020019081526020015f205f8373ffffffffffffffffffffffffffffffffffffffff1673ffffffffffffffffffffffffffffffffffffffff1681526020019081526020015f205f9054906101000a900460ff16905092915050565b60075f9054906101000a900473ffffffffffffffffffffffffffffffffffffffff1681565b5f7f01ffc9a7000000000000000000000000000000000000000000000000000000007bffffffffffffffffffffffffffffffffffffffffffffffffffffffff1916827bffffffffffffffffffffffffffffffffffffffffffffffffffffffff1916149050919050565b5f5f610d03836113ed565b90505f73ffffffffffffffffffffffffffffffffffffffff168173ffffffffffffffffffffffffffffffffffffffff1603610d7557826040517f7e273289000000000000000000000000000000000000000000000000000000008152600401610d6c9190611ebd565b60405180910390fd5b80915050919050565b5f60045f8381526020019081526020015f205f9054906101000a900473ffffffffffffffffffffffffffffffffffffffff169050919050565b5f33905090565b610dcb8383836001611426565b505050565b5f5f610ddb846113ed565b90505f73ffffffffffffffffffffffffffffffffffffffff168373ffffffffffffffffffffffffffffffffffffffff1614610e1c57610e1b8184866115e5565b5b5f73ffffffffffffffffffffffffffffffffffffffff168173ffffffffffffffffffffffffffffffffffffffff1614610ea757610e5b5f855f5f611426565b600160035f8373ffffffffffffffffffffffffffffffffffffffff1673ffffffffffffffffffffffffffffffffffffffff1681526020019081526020015f205f82825403925050819055505b5f73ffffffffffffffffffffffffffffffffffffffff168573ffffffffffffffffffffffffffffffffffffffff1614610f2657600160035f8773ffffffffffffffffffffffffffffffffffffffff1673ffffffffffffffffffffffffffffffffffffffff1681526020019081526020015f205f82825401925050819055505b8460025f8681526020019081526020015f205f6101000a81548173ffffffffffffffffffffffffffffffffffffffff021916908373ffffffffffffffffffffffffffffffffffffffff160217905550838573ffffffffffffffffffffffffffffffffffffffff168273ffffffffffffffffffffffffffffffffffffffff167fddf252ad1be2c89b69c2b068fc378daa952ba7f163c4a11628f55a4df523b3ef60405160405180910390a4809150509392505050565b610ff4828260405180602001604052805f8152506116a8565b5050565b5f73ffffffffffffffffffffffffffffffffffffffff168273ffffffffffffffffffffffffffffffffffffffff160361106857816040517f5b08ba1800000000000000000000000000000000000000000000000000000000815260040161105f9190611bc0565b60405180910390fd5b8060055f8573ffffffffffffffffffffffffffffffffffffffff1673ffffffffffffffffffffffffffffffffffffffff1681526020019081526020015f205f8473ffffffffffffffffffffffffffffffffffffffff1673ffffffffffffffffffffffffffffffffffffffff1681526020019081526020015f205f6101000a81548160ff0219169083151502179055508173ffffffffffffffffffffffffffffffffffffffff168373ffffffffffffffffffffffffffffffffffffffff167f17307eab39ab6107e8899845ad3d59bd9653f200f220920489ca2b5937696c31836040516111549190611a7a565b60405180910390a3505050565b5f8373ffffffffffffffffffffffffffffffffffffffff163b1115611306578273ffffffffffffffffffffffffffffffffffffffff1663150b7a02868685856040518563ffffffff1660e01b81526004016111bf9493929190612636565b6020604051808303815f875af19250505080156111fa57506040513d601f19601f820116820180604052508101906111f79190612694565b60015b61127b573d805f8114611228576040519150601f19603f3d011682016040523d82523d5f602084013e61122d565b606091505b505f81510361127357836040517f64a0ae9200000000000000000000000000000000000000000000000000000000815260040161126a9190611bc0565b60405180910390fd5b805160208201fd5b63150b7a0260e01b7bffffffffffffffffffffffffffffffffffffffffffffffffffffffff1916817bffffffffffffffffffffffffffffffffffffffffffffffffffffffff19161461130457836040517f64a0ae920000000000000000000000000000000000000000000000000000000081526004016112fb9190611bc0565b60405180910390fd5b505b5050505050565b606060405180602001604052805f815250905090565b60605f6001611331846116cb565b0190505f8167ffffffffffffffff81111561134f5761134e611cd7565b5b6040519080825280601f01601f1916602001820160405280156113815781602001600182028036833780820191505090505b5090505f82602083010190505b6001156113e2578080600190039150507f3031323334353637383961626364656600000000000000000000000000000000600a86061a8153600a85816113d7576113d66126bf565b5b0494505f850361138e575b819350505050919050565b5f60025f8381526020019081526020015f205f9054906101000a900473ffffffffffffffffffffffffffffffffffffffff169050919050565b808061145e57505f73ffffffffffffffffffffffffffffffffffffffff168273ffffffffffffffffffffffffffffffffffffffff1614155b15611590575f61146d84610cf8565b90505f73ffffffffffffffffffffffffffffffffffffffff168373ffffffffffffffffffffffffffffffffffffffff16141580156114d757508273ffffffffffffffffffffffffffffffffffffffff168173ffffffffffffffffffffffffffffffffffffffff1614155b80156114ea57506114e88184610bdc565b155b1561152c57826040517fa9fbf51f0000000000000000000000000000000000000000000000000000000081526004016115239190611bc0565b60405180910390fd5b811561158e57838573ffffffffffffffffffffffffffffffffffffffff168273ffffffffffffffffffffffffffffffffffffffff167f8c5be1e5ebec7d5bd14f71427d1e84f3dd0314c0f7b2291e5b200ac8c7c3b92560405160405180910390a45b505b8360045f8581526020019081526020015f205f6101000a81548173ffffffffffffffffffffffffffffffffffffffff021916908373ffffffffffffffffffffffffffffffffffffffff16021790555050505050565b6115f083838361181c565b6116a3575f73ffffffffffffffffffffffffffffffffffffffff168373ffffffffffffffffffffffffffffffffffffffff160361166457806040517f7e27328900000000000000000000000000000000000000000000000000000000815260040161165b9190611ebd565b60405180910390fd5b81816040517f177e802f00000000000000000000000000000000000000000000000000000000815260040161169a9291906126ec565b60405180910390fd5b505050565b6116b283836118dc565b6116c66116bd610db7565b5f858585611161565b505050565b5f5f5f90507a184f03e93ff9f4daa797ed6e38ed64bf6a1f0100000000000000008310611727577a184f03e93ff9f4daa797ed6e38ed64bf6a1f010000000000000000838161171d5761171c6126bf565b5b0492506040810190505b6d04ee2d6d415b85acef81000000008310611764576d04ee2d6d415b85acef8100000000838161175a576117596126bf565b5b0492506020810190505b662386f26fc10000831061179357662386f26fc100008381611789576117886126bf565b5b0492506010810190505b6305f5e10083106117bc576305f5e10083816117b2576117b16126bf565b5b0492506008810190505b61271083106117e15761271083816117d7576117d66126bf565b5b0492506004810190505b6064831061180457606483816117fa576117f96126bf565b5b0492506002810190505b600a8310611813576001810190505b80915050919050565b5f5f73ffffffffffffffffffffffffffffffffffffffff168373ffffffffffffffffffffffffffffffffffffffff16141580156118d357508273ffffffffffffffffffffffffffffffffffffffff168473ffffffffffffffffffffffffffffffffffffffff16148061189457506118938484610bdc565b5b806118d257508273ffffffffffffffffffffffffffffffffffffffff166118ba83610d7e565b73ffffffffffffffffffffffffffffffffffffffff16145b5b90509392505050565b5f73ffffffffffffffffffffffffffffffffffffffff168273ffffffffffffffffffffffffffffffffffffffff160361194c575f6040517f64a0ae920000000000000000000000000000000000000000000000000000000081526004016119439190611bc0565b60405180910390fd5b5f61195883835f610dd0565b90505f73ffffffffffffffffffffffffffffffffffffffff168173ffffffffffffffffffffffffffffffffffffffff16146119ca575f6040517f73c6ac6e0000000000000000000000000000000000000000000000000000000081526004016119c19190611bc0565b60405180910390fd5b505050565b5f604051905090565b5f5ffd5b5f5ffd5b5f7fffffffff0000000000000000000000000000000000000000000000000000000082169050919050565b611a14816119e0565b8114611a1e575f5ffd5b50565b5f81359050611a2f81611a0b565b92915050565b5f60208284031215611a4a57611a496119d8565b5b5f611a5784828501611a21565b91505092915050565b5f8115159050919050565b611a7481611a60565b82525050565b5f602082019050611a8d5f830184611a6b565b92915050565b5f81519050919050565b5f82825260208201905092915050565b8281835e5f83830152505050565b5f601f19601f8301169050919050565b5f611ad582611a93565b611adf8185611a9d565b9350611aef818560208601611aad565b611af881611abb565b840191505092915050565b5f6020820190508181035f830152611b1b8184611acb565b905092915050565b5f819050919050565b611b3581611b23565b8114611b3f575f5ffd5b50565b5f81359050611b5081611b2c565b92915050565b5f60208284031215611b6b57611b6a6119d8565b5b5f611b7884828501611b42565b91505092915050565b5f73ffffffffffffffffffffffffffffffffffffffff82169050919050565b5f611baa82611b81565b9050919050565b611bba81611ba0565b82525050565b5f602082019050611bd35f830184611bb1565b92915050565b611be281611ba0565b8114611bec575f5ffd5b50565b5f81359050611bfd81611bd9565b92915050565b5f5f60408385031215611c1957611c186119d8565b5b5f611c2685828601611bef565b9250506020611c3785828601611b42565b9150509250929050565b5f5f5f60608486031215611c5857611c576119d8565b5b5f611c6586828701611bef565b9350506020611c7686828701611bef565b9250506040611c8786828701611b42565b9150509250925092565b5f5f60408385031215611ca757611ca66119d8565b5b5f611cb485828601611b42565b9250506020611cc585828601611b42565b9150509250929050565b5f5ffd5b5f5ffd5b7f4e487b71000000000000000000000000000000000000000000000000000000005f52604160045260245ffd5b611d0d82611abb565b810181811067ffffffffffffffff82111715611d2c57611d2b611cd7565b5b80604052505050565b5f611d3e6119cf565b9050611d4a8282611d04565b919050565b5f67ffffffffffffffff821115611d6957611d68611cd7565b5b611d7282611abb565b9050602081019050919050565b828183375f83830152505050565b5f611d9f611d9a84611d4f565b611d35565b905082815260208101848484011115611dbb57611dba611cd3565b5b611dc6848285611d7f565b509392505050565b5f82601f830112611de257611de1611ccf565b5b8135611df2848260208601611d8d565b91505092915050565b5f5f5f60608486031215611e1257611e116119d8565b5b5f84013567ffffffffffffffff811115611e2f57611e2e6119dc565b5b611e3b86828701611dce565b9350506020611e4c86828701611bef565b925050604084013567ffffffffffffffff811115611e6d57611e6c6119dc565b5b611e7986828701611dce565b9150509250925092565b5f60208284031215611e9857611e976119d8565b5b5f611ea584828501611bef565b91505092915050565b611eb781611b23565b82525050565b5f602082019050611ed05f830184611eae565b92915050565b5f6060820190508181035f830152611eee8186611acb565b9050611efd6020830185611eae565b8181036040830152611f0f8184611acb565b9050949350505050565b611f2281611a60565b8114611f2c575f5ffd5b50565b5f81359050611f3d81611f19565b92915050565b5f5f60408385031215611f5957611f586119d8565b5b5f611f6685828601611bef565b9250506020611f7785828601611f2f565b9150509250929050565b5f67ffffffffffffffff821115611f9b57611f9a611cd7565b5b611fa482611abb565b9050602081019050919050565b5f611fc3611fbe84611f81565b611d35565b905082815260208101848484011115611fdf57611fde611cd3565b5b611fea848285611d7f565b509392505050565b5f82601f83011261200657612005611ccf565b5b8135612016848260208601611fb1565b91505092915050565b5f5f5f5f60808587031215612037576120366119d8565b5b5f61204487828801611bef565b945050602061205587828801611bef565b935050604061206687828801611b42565b925050606085013567ffffffffffffffff811115612087576120866119dc565b5b61209387828801611ff2565b91505092959194509250565b5f5f604083850312156120b5576120b46119d8565b5b5f6120c285828601611bef565b92505060206120d385828601611bef565b9150509250929050565b7f4e487b71000000000000000000000000000000000000000000000000000000005f52602260045260245ffd5b5f600282049050600182168061212157607f821691505b602082108103612134576121336120dd565b5b50919050565b5f60608201905061214d5f830186611bb1565b61215a6020830185611eae565b6121676040830184611bb1565b949350505050565b7f4170656e6173206f20646f6e6f20706f646520626174616c68617220636f6d205f8201527f6573746520506f6b656d6f6e0000000000000000000000000000000000000000602082015250565b5f6121c9602c83611a9d565b91506121d48261216f565b604082019050919050565b5f6020820190508181035f8301526121f6816121bd565b9050919050565b7f4e487b71000000000000000000000000000000000000000000000000000000005f52603260045260245ffd5b7f4e487b71000000000000000000000000000000000000000000000000000000005f52601160045260245ffd5b5f61226182611b23565b915061226c83611b23565b92508282019050808211156122845761228361222a565b5b92915050565b7f4170656e6173206f20646f6e6f20646f206a6f676f20706f64652063726961725f8201527f206e6f766f7320506f6b656d6f6e730000000000000000000000000000000000602082015250565b5f6122e4602f83611a9d565b91506122ef8261228a565b604082019050919050565b5f6020820190508181035f830152612311816122d8565b9050919050565b5f819050815f5260205f209050919050565b5f6020601f8301049050919050565b5f82821b905092915050565b5f600883026123747fffffffffffffffffffffffffffffffffffffffffffffffffffffffffffffffff82612339565b61237e8683612339565b95508019841693508086168417925050509392505050565b5f819050919050565b5f6123b96123b46123af84611b23565b612396565b611b23565b9050919050565b5f819050919050565b6123d28361239f565b6123e66123de826123c0565b848454612345565b825550505050565b5f5f905090565b6123fd6123ee565b6124088184846123c9565b505050565b5b8181101561242b576124205f826123f5565b60018101905061240e565b5050565b601f8211156124705761244181612318565b61244a8461232a565b81016020851015612459578190505b61246d6124658561232a565b83018261240d565b50505b505050565b5f82821c905092915050565b5f6124905f1984600802612475565b1980831691505092915050565b5f6124a88383612481565b9150826002028217905092915050565b6124c182611a93565b67ffffffffffffffff8111156124da576124d9611cd7565b5b6124e4825461210a565b6124ef82828561242f565b5f60209050601f831160018114612520575f841561250e578287015190505b612518858261249d565b86555061257f565b601f19841661252e86612318565b5f5b8281101561255557848901518255600182019150602085019450602081019050612530565b86831015612572578489015161256e601f891682612481565b8355505b6001600288020188555050505b505050505050565b5f81905092915050565b5f61259b82611a93565b6125a58185612587565b93506125b5818560208601611aad565b80840191505092915050565b5f6125cc8285612591565b91506125d88284612591565b91508190509392505050565b5f81519050919050565b5f82825260208201905092915050565b5f612608826125e4565b61261281856125ee565b9350612622818560208601611aad565b61262b81611abb565b840191505092915050565b5f6080820190506126495f830187611bb1565b6126566020830186611bb1565b6126636040830185611eae565b818103606083015261267581846125fe565b905095945050505050565b5f8151905061268e81611a0b565b92915050565b5f602082840312156126a9576126a86119d8565b5b5f6126b684828501612680565b91505092915050565b7f4e487b71000000000000000000000000000000000000000000000000000000005f52601260045260245ffd5b5f6040820190506126ff5f830185611bb1565b61270c6020830184611eae565b939250505056fea264697066735822122010b8170f4d3c50fc925d523a535fe0d58d19be3526125a41ba83a51970957d8e64736f6c634300081e0033",
			"opcodes": "PUSH1 0x80 PUSH1 0x40 MSTORE CALLVALUE DUP1 ISZERO PUSH2 0xF JUMPI PUSH0 PUSH0 REVERT JUMPDEST POP PUSH1 0x40 MLOAD DUP1 PUSH1 0x40 ADD PUSH1 0x40 MSTORE DUP1 PUSH1 0x7 DUP2 MSTORE PUSH1 0x20 ADD PUSH32 0x506F6B6544494F00000000000000000000000000000000000000000000000000 DUP2 MSTORE POP PUSH1 0x40 MLOAD DUP1 PUSH1 0x40 ADD PUSH1 0x40 MSTORE DUP1 PUSH1 0x3 DUP2 MSTORE PUSH1 0x20 ADD PUSH32 0x504B440000000000000000000000000000000000000000000000000000000000 DUP2 MSTORE POP DUP2 PUSH0 SWAP1 DUP2 PUSH2 0x8A SWAP2 SWAP1 PUSH2 0x31F JUMP JUMPDEST POP DUP1 PUSH1 0x1 SWAP1 DUP2 PUSH2 0x9A SWAP2 SWAP1 PUSH2 0x31F JUMP JUMPDEST POP POP POP CALLER PUSH1 0x7 PUSH0 PUSH2 0x100 EXP DUP2 SLOAD DUP2 PUSH20 0xFFFFFFFFFFFFFFFFFFFFFFFFFFFFFFFFFFFFFFFF MUL NOT AND SWAP1 DUP4 PUSH20 0xFFFFFFFFFFFFFFFFFFFFFFFFFFFFFFFFFFFFFFFF AND MUL OR SWAP1 SSTORE POP PUSH2 0x3EE JUMP JUMPDEST PUSH0 DUP2 MLOAD SWAP1 POP SWAP2 SWAP1 POP JUMP JUMPDEST PUSH32 0x4E487B7100000000000000000000000000000000000000000000000000000000 PUSH0 MSTORE PUSH1 0x41 PUSH1 0x4 MSTORE PUSH1 0x24 PUSH0 REVERT JUMPDEST PUSH32 0x4E487B7100000000000000000000000000000000000000000000000000000000 PUSH0 MSTORE PUSH1 0x22 PUSH1 0x4 MSTORE PUSH1 0x24 PUSH0 REVERT JUMPDEST PUSH0 PUSH1 0x2 DUP3 DIV SWAP1 POP PUSH1 0x1 DUP3 AND DUP1 PUSH2 0x15D JUMPI PUSH1 0x7F DUP3 AND SWAP2 POP JUMPDEST PUSH1 0x20 DUP3 LT DUP2 SUB PUSH2 0x170 JUMPI PUSH2 0x16F PUSH2 0x119 JUMP JUMPDEST JUMPDEST POP SWAP2 SWAP1 POP JUMP JUMPDEST PUSH0 DUP2 SWAP1 POP DUP2 PUSH0 MSTORE PUSH1 0x20 PUSH0 KECCAK256 SWAP1 POP SWAP2 SWAP1 POP JUMP JUMPDEST PUSH0 PUSH1 0x20 PUSH1 0x1F DUP4 ADD DIV SWAP1 POP SWAP2 SWAP1 POP JUMP JUMPDEST PUSH0 DUP3 DUP3 SHL SWAP1 POP SWAP3 SWAP2 POP POP JUMP JUMPDEST PUSH0 PUSH1 0x8 DUP4 MUL PUSH2 0x1D2 PUSH32 0xFFFFFFFFFFFFFFFFFFFFFFFFFFFFFFFFFFFFFFFFFFFFFFFFFFFFFFFFFFFFFFFF DUP3 PUSH2 0x197 JUMP JUMPDEST PUSH2 0x1DC DUP7 DUP4 PUSH2 0x197 JUMP JUMPDEST SWAP6 POP DUP1 NOT DUP5 AND SWAP4 POP DUP1 DUP7 AND DUP5 OR SWAP3 POP POP POP SWAP4 SWAP3 POP POP POP JUMP JUMPDEST PUSH0 DUP2 SWAP1 POP SWAP2 SWAP1 POP JUMP JUMPDEST PUSH0 DUP2 SWAP1 POP SWAP2 SWAP1 POP JUMP JUMPDEST PUSH0 PUSH2 0x220 PUSH2 0x21B PUSH2 0x216 DUP5 PUSH2 0x1F4 JUMP JUMPDEST PUSH2 0x1FD JUMP JUMPDEST PUSH2 0x1F4 JUMP JUMPDEST SWAP1 POP SWAP2 SWAP1 POP JUMP JUMPDEST PUSH0 DUP2 SWAP1 POP SWAP2 SWAP1 POP JUMP JUMPDEST PUSH2 0x239 DUP4 PUSH2 0x206 JUMP JUMPDEST PUSH2 0x24D PUSH2 0x245 DUP3 PUSH2 0x227 JUMP JUMPDEST DUP5 DUP5 SLOAD PUSH2 0x1A3 JUMP JUMPDEST DUP3 SSTORE POP POP POP POP JUMP JUMPDEST PUSH0 PUSH0 SWAP1 POP SWAP1 JUMP JUMPDEST PUSH2 0x264 PUSH2 0x255 JUMP JUMPDEST PUSH2 0x26F DUP2 DUP5 DUP5 PUSH2 0x230 JUMP JUMPDEST POP POP POP JUMP JUMPDEST JUMPDEST DUP2 DUP2 LT ISZERO PUSH2 0x292 JUMPI PUSH2 0x287 PUSH0 DUP3 PUSH2 0x25C JUMP JUMPDEST PUSH1 0x1 DUP2 ADD SWAP1 POP PUSH2 0x275 JUMP JUMPDEST POP POP JUMP JUMPDEST PUSH1 0x1F DUP3 GT ISZERO PUSH2 0x2D7 JUMPI PUSH2 0x2A8 DUP2 PUSH2 0x176 JUMP JUMPDEST PUSH2 0x2B1 DUP5 PUSH2 0x188 JUMP JUMPDEST DUP2 ADD PUSH1 0x20 DUP6 LT ISZERO PUSH2 0x2C0 JUMPI DUP2 SWAP1 POP JUMPDEST PUSH2 0x2D4 PUSH2 0x2CC DUP6 PUSH2 0x188 JUMP JUMPDEST DUP4 ADD DUP3 PUSH2 0x274 JUMP JUMPDEST POP POP JUMPDEST POP POP POP JUMP JUMPDEST PUSH0 DUP3 DUP3 SHR SWAP1 POP SWAP3 SWAP2 POP POP JUMP JUMPDEST PUSH0 PUSH2 0x2F7 PUSH0 NOT DUP5 PUSH1 0x8 MUL PUSH2 0x2DC JUMP JUMPDEST NOT DUP1 DUP4 AND SWAP2 POP POP SWAP3 SWAP2 POP POP JUMP JUMPDEST PUSH0 PUSH2 0x30F DUP4 DUP4 PUSH2 0x2E8 JUMP JUMPDEST SWAP2 POP DUP3 PUSH1 0x2 MUL DUP3 OR SWAP1 POP SWAP3 SWAP2 POP POP JUMP JUMPDEST PUSH2 0x328 DUP3 PUSH2 0xE2 JUMP JUMPDEST PUSH8 0xFFFFFFFFFFFFFFFF DUP2 GT ISZERO PUSH2 0x341 JUMPI PUSH2 0x340 PUSH2 0xEC JUMP JUMPDEST JUMPDEST PUSH2 0x34B DUP3 SLOAD PUSH2 0x146 JUMP JUMPDEST PUSH2 0x356 DUP3 DUP3 DUP6 PUSH2 0x296 JUMP JUMPDEST PUSH0 PUSH1 0x20 SWAP1 POP PUSH1 0x1F DUP4 GT PUSH1 0x1 DUP2 EQ PUSH2 0x387 JUMPI PUSH0 DUP5 ISZERO PUSH2 0x375 JUMPI DUP3 DUP8 ADD MLOAD SWAP1 POP JUMPDEST PUSH2 0x37F DUP6 DUP3 PUSH2 0x304 JUMP JUMPDEST DUP7 SSTORE POP PUSH2 0x3E6 JUMP JUMPDEST PUSH1 0x1F NOT DUP5 AND PUSH2 0x395 DUP7 PUSH2 0x176 JUMP JUMPDEST PUSH0 JUMPDEST DUP3 DUP2 LT ISZERO PUSH2 0x3BC JUMPI DUP5 DUP10 ADD MLOAD DUP3 SSTORE PUSH1 0x1 DUP3 ADD SWAP2 POP PUSH1 0x20 DUP6 ADD SWAP5 POP PUSH1 0x20 DUP2 ADD SWAP1 POP PUSH2 0x397 JUMP JUMPDEST DUP7 DUP4 LT ISZERO PUSH2 0x3D9 JUMPI DUP5 DUP10 ADD MLOAD PUSH2 0x3D5 PUSH1 0x1F DUP10 AND DUP3 PUSH2 0x2E8 JUMP JUMPDEST DUP4 SSTORE POP JUMPDEST PUSH1 0x1 PUSH1 0x2 DUP9 MUL ADD DUP9 SSTORE POP POP POP JUMPDEST POP POP POP POP POP POP JUMP JUMPDEST PUSH2 0x2749 DUP1 PUSH2 0x3FB PUSH0 CODECOPY PUSH0 RETURN INVALID PUSH1 0x80 PUSH1 0x40 MSTORE CALLVALUE DUP1 ISZERO PUSH2 0xF JUMPI PUSH0 PUSH0 REVERT JUMPDEST POP PUSH1 0x4 CALLDATASIZE LT PUSH2 0x109 JUMPI PUSH0 CALLDATALOAD PUSH1 0xE0 SHR DUP1 PUSH4 0x6352211E GT PUSH2 0xA0 JUMPI DUP1 PUSH4 0xA22CB465 GT PUSH2 0x6F JUMPI DUP1 PUSH4 0xA22CB465 EQ PUSH2 0x2C7 JUMPI DUP1 PUSH4 0xB88D4FDE EQ PUSH2 0x2E3 JUMPI DUP1 PUSH4 0xC87B56DD EQ PUSH2 0x2FF JUMPI DUP1 PUSH4 0xE985E9C5 EQ PUSH2 0x32F JUMPI DUP1 PUSH4 0xF6B12F28 EQ PUSH2 0x35F JUMPI PUSH2 0x109 JUMP JUMPDEST DUP1 PUSH4 0x6352211E EQ PUSH2 0x217 JUMPI DUP1 PUSH4 0x70A08231 EQ PUSH2 0x247 JUMPI DUP1 PUSH4 0x85831079 EQ PUSH2 0x277 JUMPI DUP1 PUSH4 0x95D89B41 EQ PUSH2 0x2A9 JUMPI PUSH2 0x109 JUMP JUMPDEST DUP1 PUSH4 0x23B872DD GT PUSH2 0xDC JUMPI DUP1 PUSH4 0x23B872DD EQ PUSH2 0x1A7 JUMPI DUP1 PUSH4 0x2A0C5221 EQ PUSH2 0x1C3 JUMPI DUP1 PUSH4 0x42842E0E EQ PUSH2 0x1DF JUMPI DUP1 PUSH4 0x555072DE EQ PUSH2 0x1FB JUMPI PUSH2 0x109 JUMP JUMPDEST DUP1 PUSH4 0x1FFC9A7 EQ PUSH2 0x10D JUMPI DUP1 PUSH4 0x6FDDE03 EQ PUSH2 0x13D JUMPI DUP1 PUSH4 0x81812FC EQ PUSH2 0x15B JUMPI DUP1 PUSH4 0x95EA7B3 EQ PUSH2 0x18B JUMPI JUMPDEST PUSH0 PUSH0 REVERT JUMPDEST PUSH2 0x127 PUSH1 0x4 DUP1 CALLDATASIZE SUB DUP2 ADD SWAP1 PUSH2 0x122 SWAP2 SWAP1 PUSH2 0x1A35 JUMP JUMPDEST PUSH2 0x37D JUMP JUMPDEST PUSH1 0x40 MLOAD PUSH2 0x134 SWAP2 SWAP1 PUSH2 0x1A7A JUMP JUMPDEST PUSH1 0x40 MLOAD DUP1 SWAP2 SUB SWAP1 RETURN JUMPDEST PUSH2 0x145 PUSH2 0x45E JUMP JUMPDEST PUSH1 0x40 MLOAD PUSH2 0x152 SWAP2 SWAP1 PUSH2 0x1B03 JUMP JUMPDEST PUSH1 0x40 MLOAD DUP1 SWAP2 SUB SWAP1 RETURN JUMPDEST PUSH2 0x175 PUSH1 0x4 DUP1 CALLDATASIZE SUB DUP2 ADD SWAP1 PUSH2 0x170 SWAP2 SWAP1 PUSH2 0x1B56 JUMP JUMPDEST PUSH2 0x4ED JUMP JUMPDEST PUSH1 0x40 MLOAD PUSH2 0x182 SWAP2 SWAP1 PUSH2 0x1BC0 JUMP JUMPDEST PUSH1 0x40 MLOAD DUP1 SWAP2 SUB SWAP1 RETURN JUMPDEST PUSH2 0x1A5 PUSH1 0x4 DUP1 CALLDATASIZE SUB DUP2 ADD SWAP1 PUSH2 0x1A0 SWAP2 SWAP1 PUSH2 0x1C03 JUMP JUMPDEST PUSH2 0x508 JUMP JUMPDEST STOP JUMPDEST PUSH2 0x1C1 PUSH1 0x4 DUP1 CALLDATASIZE SUB DUP2 ADD SWAP1 PUSH2 0x1BC SWAP2 SWAP1 PUSH2 0x1C41 JUMP JUMPDEST PUSH2 0x51E JUMP JUMPDEST STOP JUMPDEST PUSH2 0x1DD PUSH1 0x4 DUP1 CALLDATASIZE SUB DUP2 ADD SWAP1 PUSH2 0x1D8 SWAP2 SWAP1 PUSH2 0x1C91 JUMP JUMPDEST PUSH2 0x61D JUMP JUMPDEST STOP JUMPDEST PUSH2 0x1F9 PUSH1 0x4 DUP1 CALLDATASIZE SUB DUP2 ADD SWAP1 PUSH2 0x1F4 SWAP2 SWAP1 PUSH2 0x1C41 JUMP JUMPDEST PUSH2 0x762 JUMP JUMPDEST STOP JUMPDEST PUSH2 0x215 PUSH1 0x4 DUP1 CALLDATASIZE SUB DUP2 ADD SWAP1 PUSH2 0x210 SWAP2 SWAP1 PUSH2 0x1DFB JUMP JUMPDEST PUSH2 0x781 JUMP JUMPDEST STOP JUMPDEST PUSH2 0x231 PUSH1 0x4 DUP1 CALLDATASIZE SUB DUP2 ADD SWAP1 PUSH2 0x22C SWAP2 SWAP1 PUSH2 0x1B56 JUMP JUMPDEST PUSH2 0x8A3 JUMP JUMPDEST PUSH1 0x40 MLOAD PUSH2 0x23E SWAP2 SWAP1 PUSH2 0x1BC0 JUMP JUMPDEST PUSH1 0x40 MLOAD DUP1 SWAP2 SUB SWAP1 RETURN JUMPDEST PUSH2 0x261 PUSH1 0x4 DUP1 CALLDATASIZE SUB DUP2 ADD SWAP1 PUSH2 0x25C SWAP2 SWAP1 PUSH2 0x1E83 JUMP JUMPDEST PUSH2 0x8B4 JUMP JUMPDEST PUSH1 0x40 MLOAD PUSH2 0x26E SWAP2 SWAP1 PUSH2 0x1EBD JUMP JUMPDEST PUSH1 0x40 MLOAD DUP1 SWAP2 SUB SWAP1 RETURN JUMPDEST PUSH2 0x291 PUSH1 0x4 DUP1 CALLDATASIZE SUB DUP2 ADD SWAP1 PUSH2 0x28C SWAP2 SWAP1 PUSH2 0x1B56 JUMP JUMPDEST PUSH2 0x96A JUMP JUMPDEST PUSH1 0x40 MLOAD PUSH2 0x2A0 SWAP4 SWAP3 SWAP2 SWAP1 PUSH2 0x1ED6 JUMP JUMPDEST PUSH1 0x40 MLOAD DUP1 SWAP2 SUB SWAP1 RETURN JUMPDEST PUSH2 0x2B1 PUSH2 0xAAB JUMP JUMPDEST PUSH1 0x40 MLOAD PUSH2 0x2BE SWAP2 SWAP1 PUSH2 0x1B03 JUMP JUMPDEST PUSH1 0x40 MLOAD DUP1 SWAP2 SUB SWAP1 RETURN JUMPDEST PUSH2 0x2E1 PUSH1 0x4 DUP1 CALLDATASIZE SUB DUP2 ADD SWAP1 PUSH2 0x2DC SWAP2 SWAP1 PUSH2 0x1F43 JUMP JUMPDEST PUSH2 0xB3B JUMP JUMPDEST STOP JUMPDEST PUSH2 0x2FD PUSH1 0x4 DUP1 CALLDATASIZE SUB DUP2 ADD SWAP1 PUSH2 0x2F8 SWAP2 SWAP1 PUSH2 0x201F JUMP JUMPDEST PUSH2 0xB51 JUMP JUMPDEST STOP JUMPDEST PUSH2 0x319 PUSH1 0x4 DUP1 CALLDATASIZE SUB DUP2 ADD SWAP1 PUSH2 0x314 SWAP2 SWAP1 PUSH2 0x1B56 JUMP JUMPDEST PUSH2 0xB76 JUMP JUMPDEST PUSH1 0x40 MLOAD PUSH2 0x326 SWAP2 SWAP1 PUSH2 0x1B03 JUMP JUMPDEST PUSH1 0x40 MLOAD DUP1 SWAP2 SUB SWAP1 RETURN JUMPDEST PUSH2 0x349 PUSH1 0x4 DUP1 CALLDATASIZE SUB DUP2 ADD SWAP1 PUSH2 0x344 SWAP2 SWAP1 PUSH2 0x209F JUMP JUMPDEST PUSH2 0xBDC JUMP JUMPDEST PUSH1 0x40 MLOAD PUSH2 0x356 SWAP2 SWAP1 PUSH2 0x1A7A JUMP JUMPDEST PUSH1 0x40 MLOAD DUP1 SWAP2 SUB SWAP1 RETURN JUMPDEST PUSH2 0x367 PUSH2 0xC6A JUMP JUMPDEST PUSH1 0x40 MLOAD PUSH2 0x374 SWAP2 SWAP1 PUSH2 0x1BC0 JUMP JUMPDEST PUSH1 0x40 MLOAD DUP1 SWAP2 SUB SWAP1 RETURN JUMPDEST PUSH0 PUSH32 0x80AC58CD00000000000000000000000000000000000000000000000000000000 PUSH28 0xFFFFFFFFFFFFFFFFFFFFFFFFFFFFFFFFFFFFFFFFFFFFFFFFFFFFFFFF NOT AND DUP3 PUSH28 0xFFFFFFFFFFFFFFFFFFFFFFFFFFFFFFFFFFFFFFFFFFFFFFFFFFFFFFFF NOT AND EQ DUP1 PUSH2 0x447 JUMPI POP PUSH32 0x5B5E139F00000000000000000000000000000000000000000000000000000000 PUSH28 0xFFFFFFFFFFFFFFFFFFFFFFFFFFFFFFFFFFFFFFFFFFFFFFFFFFFFFFFF NOT AND DUP3 PUSH28 0xFFFFFFFFFFFFFFFFFFFFFFFFFFFFFFFFFFFFFFFFFFFFFFFFFFFFFFFF NOT AND EQ JUMPDEST DUP1 PUSH2 0x457 JUMPI POP PUSH2 0x456 DUP3 PUSH2 0xC8F JUMP JUMPDEST JUMPDEST SWAP1 POP SWAP2 SWAP1 POP JUMP JUMPDEST PUSH1 0x60 PUSH0 DUP1 SLOAD PUSH2 0x46C SWAP1 PUSH2 0x210A JUMP JUMPDEST DUP1 PUSH1 0x1F ADD PUSH1 0x20 DUP1 SWAP2 DIV MUL PUSH1 0x20 ADD PUSH1 0x40 MLOAD SWAP1 DUP2 ADD PUSH1 0x40 MSTORE DUP1 SWAP3 SWAP2 SWAP1 DUP2 DUP2 MSTORE PUSH1 0x20 ADD DUP3 DUP1 SLOAD PUSH2 0x498 SWAP1 PUSH2 0x210A JUMP JUMPDEST DUP1 ISZERO PUSH2 0x4E3 JUMPI DUP1 PUSH1 0x1F LT PUSH2 0x4BA JUMPI PUSH2 0x100 DUP1 DUP4 SLOAD DIV MUL DUP4 MSTORE SWAP2 PUSH1 0x20 ADD SWAP2 PUSH2 0x4E3 JUMP JUMPDEST DUP3 ADD SWAP2 SWAP1 PUSH0 MSTORE PUSH1 0x20 PUSH0 KECCAK256 SWAP1 JUMPDEST DUP2 SLOAD DUP2 MSTORE SWAP1 PUSH1 0x1 ADD SWAP1 PUSH1 0x20 ADD DUP1 DUP4 GT PUSH2 0x4C6 JUMPI DUP3 SWAP1 SUB PUSH1 0x1F AND DUP3 ADD SWAP2 JUMPDEST POP POP POP POP POP SWAP1 POP SWAP1 JUMP JUMPDEST PUSH0 PUSH2 0x4F7 DUP3 PUSH2 0xCF8 JUMP JUMPDEST POP PUSH2 0x501 DUP3 PUSH2 0xD7E JUMP JUMPDEST SWAP1 POP SWAP2 SWAP1 POP JUMP JUMPDEST PUSH2 0x51A DUP3 DUP3 PUSH2 0x515 PUSH2 0xDB7 JUMP JUMPDEST PUSH2 0xDBE JUMP JUMPDEST POP POP JUMP JUMPDEST PUSH0 PUSH20 0xFFFFFFFFFFFFFFFFFFFFFFFFFFFFFFFFFFFFFFFF AND DUP3 PUSH20 0xFFFFFFFFFFFFFFFFFFFFFFFFFFFFFFFFFFFFFFFF AND SUB PUSH2 0x58E JUMPI PUSH0 PUSH1 0x40 MLOAD PUSH32 0x64A0AE9200000000000000000000000000000000000000000000000000000000 DUP2 MSTORE PUSH1 0x4 ADD PUSH2 0x585 SWAP2 SWAP1 PUSH2 0x1BC0 JUMP JUMPDEST PUSH1 0x40 MLOAD DUP1 SWAP2 SUB SWAP1 REVERT JUMPDEST PUSH0 PUSH2 0x5A1 DUP4 DUP4 PUSH2 0x59C PUSH2 0xDB7 JUMP JUMPDEST PUSH2 0xDD0 JUMP JUMPDEST SWAP1 POP DUP4 PUSH20 0xFFFFFFFFFFFFFFFFFFFFFFFFFFFFFFFFFFFFFFFF AND DUP2 PUSH20 0xFFFFFFFFFFFFFFFFFFFFFFFFFFFFFFFFFFFFFFFF AND EQ PUSH2 0x617 JUMPI DUP4 DUP3 DUP3 PUSH1 0x40 MLOAD PUSH32 0x64283D7B00000000000000000000000000000000000000000000000000000000 DUP2 MSTORE PUSH1 0x4 ADD PUSH2 0x60E SWAP4 SWAP3 SWAP2 SWAP1 PUSH2 0x213A JUMP JUMPDEST PUSH1 0x40 MLOAD DUP1 SWAP2 SUB SWAP1 REVERT JUMPDEST POP POP POP POP JUMP JUMPDEST DUP2 CALLER PUSH20 0xFFFFFFFFFFFFFFFFFFFFFFFFFFFFFFFFFFFFFFFF AND PUSH2 0x63E DUP3 PUSH2 0x8A3 JUMP JUMPDEST PUSH20 0xFFFFFFFFFFFFFFFFFFFFFFFFFFFFFFFFFFFFFFFF AND EQ PUSH2 0x694 JUMPI PUSH1 0x40 MLOAD PUSH32 0x8C379A000000000000000000000000000000000000000000000000000000000 DUP2 MSTORE PUSH1 0x4 ADD PUSH2 0x68B SWAP1 PUSH2 0x21DF JUMP JUMPDEST PUSH1 0x40 MLOAD DUP1 SWAP2 SUB SWAP1 REVERT JUMPDEST PUSH0 PUSH1 0x6 DUP5 DUP2 SLOAD DUP2 LT PUSH2 0x6A9 JUMPI PUSH2 0x6A8 PUSH2 0x21FD JUMP JUMPDEST JUMPDEST SWAP1 PUSH0 MSTORE PUSH1 0x20 PUSH0 KECCAK256 SWAP1 PUSH1 0x3 MUL ADD SWAP1 POP PUSH0 PUSH1 0x6 DUP5 DUP2 SLOAD DUP2 LT PUSH2 0x6CC JUMPI PUSH2 0x6CB PUSH2 0x21FD JUMP JUMPDEST JUMPDEST SWAP1 PUSH0 MSTORE PUSH1 0x20 PUSH0 KECCAK256 SWAP1 PUSH1 0x3 MUL ADD SWAP1 POP DUP1 PUSH1 0x1 ADD SLOAD DUP3 PUSH1 0x1 ADD SLOAD LT PUSH2 0x724 JUMPI PUSH1 0x2 DUP3 PUSH1 0x1 ADD PUSH0 DUP3 DUP3 SLOAD PUSH2 0x6FD SWAP2 SWAP1 PUSH2 0x2257 JUMP JUMPDEST SWAP3 POP POP DUP2 SWAP1 SSTORE POP PUSH1 0x1 DUP2 PUSH1 0x1 ADD PUSH0 DUP3 DUP3 SLOAD PUSH2 0x718 SWAP2 SWAP1 PUSH2 0x2257 JUMP JUMPDEST SWAP3 POP POP DUP2 SWAP1 SSTORE POP PUSH2 0x75B JUMP JUMPDEST PUSH1 0x1 DUP3 PUSH1 0x1 ADD PUSH0 DUP3 DUP3 SLOAD PUSH2 0x738 SWAP2 SWAP1 PUSH2 0x2257 JUMP JUMPDEST SWAP3 POP POP DUP2 SWAP1 SSTORE POP PUSH1 0x2 DUP2 PUSH1 0x1 ADD PUSH0 DUP3 DUP3 SLOAD PUSH2 0x753 SWAP2 SWAP1 PUSH2 0x2257 JUMP JUMPDEST SWAP3 POP POP DUP2 SWAP1 SSTORE POP JUMPDEST POP POP POP POP POP JUMP JUMPDEST PUSH2 0x77C DUP4 DUP4 DUP4 PUSH1 0x40 MLOAD DUP1 PUSH1 0x20 ADD PUSH1 0x40 MSTORE DUP1 PUSH0 DUP2 MSTORE POP PUSH2 0xB51 JUMP JUMPDEST POP POP POP JUMP JUMPDEST PUSH1 0x7 PUSH0 SWAP1 SLOAD SWAP1 PUSH2 0x100 EXP SWAP1 DIV PUSH20 0xFFFFFFFFFFFFFFFFFFFFFFFFFFFFFFFFFFFFFFFF AND PUSH20 0xFFFFFFFFFFFFFFFFFFFFFFFFFFFFFFFFFFFFFFFF AND CALLER PUSH20 0xFFFFFFFFFFFFFFFFFFFFFFFFFFFFFFFFFFFFFFFF AND EQ PUSH2 0x810 JUMPI PUSH1 0x40 MLOAD PUSH32 0x8C379A000000000000000000000000000000000000000000000000000000000 DUP2 MSTORE PUSH1 0x4 ADD PUSH2 0x807 SWAP1 PUSH2 0x22FA JUMP JUMPDEST PUSH1 0x40 MLOAD DUP1 SWAP2 SUB SWAP1 REVERT JUMPDEST PUSH0 PUSH1 0x6 DUP1 SLOAD SWAP1 POP SWAP1 POP PUSH1 0x6 PUSH1 0x40 MLOAD DUP1 PUSH1 0x60 ADD PUSH1 0x40 MSTORE DUP1 DUP7 DUP2 MSTORE PUSH1 0x20 ADD PUSH1 0x1 DUP2 MSTORE PUSH1 0x20 ADD DUP5 DUP2 MSTORE POP SWAP1 DUP1 PUSH1 0x1 DUP2 SLOAD ADD DUP1 DUP3 SSTORE DUP1 SWAP2 POP POP PUSH1 0x1 SWAP1 SUB SWAP1 PUSH0 MSTORE PUSH1 0x20 PUSH0 KECCAK256 SWAP1 PUSH1 0x3 MUL ADD PUSH0 SWAP1 SWAP2 SWAP1 SWAP2 SWAP1 SWAP2 POP PUSH0 DUP3 ADD MLOAD DUP2 PUSH0 ADD SWAP1 DUP2 PUSH2 0x870 SWAP2 SWAP1 PUSH2 0x24B8 JUMP JUMPDEST POP PUSH1 0x20 DUP3 ADD MLOAD DUP2 PUSH1 0x1 ADD SSTORE PUSH1 0x40 DUP3 ADD MLOAD DUP2 PUSH1 0x2 ADD SWAP1 DUP2 PUSH2 0x890 SWAP2 SWAP1 PUSH2 0x24B8 JUMP JUMPDEST POP POP POP PUSH2 0x89D DUP4 DUP3 PUSH2 0xFDB JUMP JUMPDEST POP POP POP POP JUMP JUMPDEST PUSH0 PUSH2 0x8AD DUP3 PUSH2 0xCF8 JUMP JUMPDEST SWAP1 POP SWAP2 SWAP1 POP JUMP JUMPDEST PUSH0 PUSH0 PUSH20 0xFFFFFFFFFFFFFFFFFFFFFFFFFFFFFFFFFFFFFFFF AND DUP3 PUSH20 0xFFFFFFFFFFFFFFFFFFFFFFFFFFFFFFFFFFFFFFFF AND SUB PUSH2 0x925 JUMPI PUSH0 PUSH1 0x40 MLOAD PUSH32 0x89C62B6400000000000000000000000000000000000000000000000000000000 DUP2 MSTORE PUSH1 0x4 ADD PUSH2 0x91C SWAP2 SWAP1 PUSH2 0x1BC0 JUMP JUMPDEST PUSH1 0x40 MLOAD DUP1 SWAP2 SUB SWAP1 REVERT JUMPDEST PUSH1 0x3 PUSH0 DUP4 PUSH20 0xFFFFFFFFFFFFFFFFFFFFFFFFFFFFFFFFFFFFFFFF AND PUSH20 0xFFFFFFFFFFFFFFFFFFFFFFFFFFFFFFFFFFFFFFFF AND DUP2 MSTORE PUSH1 0x20 ADD SWAP1 DUP2 MSTORE PUSH1 0x20 ADD PUSH0 KECCAK256 SLOAD SWAP1 POP SWAP2 SWAP1 POP JUMP JUMPDEST PUSH1 0x6 DUP2 DUP2 SLOAD DUP2 LT PUSH2 0x979 JUMPI PUSH0 DUP1 REVERT JUMPDEST SWAP1 PUSH0 MSTORE PUSH1 0x20 PUSH0 KECCAK256 SWAP1 PUSH1 0x3 MUL ADD PUSH0 SWAP2 POP SWAP1 POP DUP1 PUSH0 ADD DUP1 SLOAD PUSH2 0x998 SWAP1 PUSH2 0x210A JUMP JUMPDEST DUP1 PUSH1 0x1F ADD PUSH1 0x20 DUP1 SWAP2 DIV MUL PUSH1 0x20 ADD PUSH1 0x40 MLOAD SWAP1 DUP2 ADD PUSH1 0x40 MSTORE DUP1 SWAP3 SWAP2 SWAP1 DUP2 DUP2 MSTORE PUSH1 0x20 ADD DUP3 DUP1 SLOAD PUSH2 0x9C4 SWAP1 PUSH2 0x210A JUMP JUMPDEST DUP1 ISZERO PUSH2 0xA0F JUMPI DUP1 PUSH1 0x1F LT PUSH2 0x9E6 JUMPI PUSH2 0x100 DUP1 DUP4 SLOAD DIV MUL DUP4 MSTORE SWAP2 PUSH1 0x20 ADD SWAP2 PUSH2 0xA0F JUMP JUMPDEST DUP3 ADD SWAP2 SWAP1 PUSH0 MSTORE PUSH1 0x20 PUSH0 KECCAK256 SWAP1 JUMPDEST DUP2 SLOAD DUP2 MSTORE SWAP1 PUSH1 0x1 ADD SWAP1 PUSH1 0x20 ADD DUP1 DUP4 GT PUSH2 0x9F2 JUMPI DUP3 SWAP1 SUB PUSH1 0x1F AND DUP3 ADD SWAP2 JUMPDEST POP POP POP POP POP SWAP1 DUP1 PUSH1 0x1 ADD SLOAD SWAP1 DUP1 PUSH1 0x2 ADD DUP1 SLOAD PUSH2 0xA2A SWAP1 PUSH2 0x210A JUMP JUMPDEST DUP1 PUSH1 0x1F ADD PUSH1 0x20 DUP1 SWAP2 DIV MUL PUSH1 0x20 ADD PUSH1 0x40 MLOAD SWAP1 DUP2 ADD PUSH1 0x40 MSTORE DUP1 SWAP3 SWAP2 SWAP1 DUP2 DUP2 MSTORE PUSH1 0x20 ADD DUP3 DUP1 SLOAD PUSH2 0xA56 SWAP1 PUSH2 0x210A JUMP JUMPDEST DUP1 ISZERO PUSH2 0xAA1 JUMPI DUP1 PUSH1 0x1F LT PUSH2 0xA78 JUMPI PUSH2 0x100 DUP1 DUP4 SLOAD DIV MUL DUP4 MSTORE SWAP2 PUSH1 0x20 ADD SWAP2 PUSH2 0xAA1 JUMP JUMPDEST DUP3 ADD SWAP2 SWAP1 PUSH0 MSTORE PUSH1 0x20 PUSH0 KECCAK256 SWAP1 JUMPDEST DUP2 SLOAD DUP2 MSTORE SWAP1 PUSH1 0x1 ADD SWAP1 PUSH1 0x20 ADD DUP1 DUP4 GT PUSH2 0xA84 JUMPI DUP3 SWAP1 SUB PUSH1 0x1F AND DUP3 ADD SWAP2 JUMPDEST POP POP POP POP POP SWAP1 POP DUP4 JUMP JUMPDEST PUSH1 0x60 PUSH1 0x1 DUP1 SLOAD PUSH2 0xABA SWAP1 PUSH2 0x210A JUMP JUMPDEST DUP1 PUSH1 0x1F ADD PUSH1 0x20 DUP1 SWAP2 DIV MUL PUSH1 0x20 ADD PUSH1 0x40 MLOAD SWAP1 DUP2 ADD PUSH1 0x40 MSTORE DUP1 SWAP3 SWAP2 SWAP1 DUP2 DUP2 MSTORE PUSH1 0x20 ADD DUP3 DUP1 SLOAD PUSH2 0xAE6 SWAP1 PUSH2 0x210A JUMP JUMPDEST DUP1 ISZERO PUSH2 0xB31 JUMPI DUP1 PUSH1 0x1F LT PUSH2 0xB08 JUMPI PUSH2 0x100 DUP1 DUP4 SLOAD DIV MUL DUP4 MSTORE SWAP2 PUSH1 0x20 ADD SWAP2 PUSH2 0xB31 JUMP JUMPDEST DUP3 ADD SWAP2 SWAP1 PUSH0 MSTORE PUSH1 0x20 PUSH0 KECCAK256 SWAP1 JUMPDEST DUP2 SLOAD DUP2 MSTORE SWAP1 PUSH1 0x1 ADD SWAP1 PUSH1 0x20 ADD DUP1 DUP4 GT PUSH2 0xB14 JUMPI DUP3 SWAP1 SUB PUSH1 0x1F AND DUP3 ADD SWAP2 JUMPDEST POP POP POP POP POP SWAP1 POP SWAP1 JUMP JUMPDEST PUSH2 0xB4D PUSH2 0xB46 PUSH2 0xDB7 JUMP JUMPDEST DUP4 DUP4 PUSH2 0xFF8 JUMP JUMPDEST POP POP JUMP JUMPDEST PUSH2 0xB5C DUP5 DUP5 DUP5 PUSH2 0x51E JUMP JUMPDEST PUSH2 0xB70 PUSH2 0xB67 PUSH2 0xDB7 JUMP JUMPDEST DUP6 DUP6 DUP6 DUP6 PUSH2 0x1161 JUMP JUMPDEST POP POP POP POP JUMP JUMPDEST PUSH1 0x60 PUSH2 0xB81 DUP3 PUSH2 0xCF8 JUMP JUMPDEST POP PUSH0 PUSH2 0xB8B PUSH2 0x130D JUMP JUMPDEST SWAP1 POP PUSH0 DUP2 MLOAD GT PUSH2 0xBA9 JUMPI PUSH1 0x40 MLOAD DUP1 PUSH1 0x20 ADD PUSH1 0x40 MSTORE DUP1 PUSH0 DUP2 MSTORE POP PUSH2 0xBD4 JUMP JUMPDEST DUP1 PUSH2 0xBB3 DUP5 PUSH2 0x1323 JUMP JUMPDEST PUSH1 0x40 MLOAD PUSH1 0x20 ADD PUSH2 0xBC4 SWAP3 SWAP2 SWAP1 PUSH2 0x25C1 JUMP JUMPDEST PUSH1 0x40 MLOAD PUSH1 0x20 DUP2 DUP4 SUB SUB DUP2 MSTORE SWAP1 PUSH1 0x40 MSTORE JUMPDEST SWAP2 POP POP SWAP2 SWAP1 POP JUMP JUMPDEST PUSH0 PUSH1 0x5 PUSH0 DUP5 PUSH20 0xFFFFFFFFFFFFFFFFFFFFFFFFFFFFFFFFFFFFFFFF AND PUSH20 0xFFFFFFFFFFFFFFFFFFFFFFFFFFFFFFFFFFFFFFFF AND DUP2 MSTORE PUSH1 0x20 ADD SWAP1 DUP2 MSTORE PUSH1 0x20 ADD PUSH0 KECCAK256 PUSH0 DUP4 PUSH20 0xFFFFFFFFFFFFFFFFFFFFFFFFFFFFFFFFFFFFFFFF AND PUSH20 0xFFFFFFFFFFFFFFFFFFFFFFFFFFFFFFFFFFFFFFFF AND DUP2 MSTORE PUSH1 0x20 ADD SWAP1 DUP2 MSTORE PUSH1 0x20 ADD PUSH0 KECCAK256 PUSH0 SWAP1 SLOAD SWAP1 PUSH2 0x100 EXP SWAP1 DIV PUSH1 0xFF AND SWAP1 POP SWAP3 SWAP2 POP POP JUMP JUMPDEST PUSH1 0x7 PUSH0 SWAP1 SLOAD SWAP1 PUSH2 0x100 EXP SWAP1 DIV PUSH20 0xFFFFFFFFFFFFFFFFFFFFFFFFFFFFFFFFFFFFFFFF AND DUP2 JUMP JUMPDEST PUSH0 PUSH32 0x1FFC9A700000000000000000000000000000000000000000000000000000000 PUSH28 0xFFFFFFFFFFFFFFFFFFFFFFFFFFFFFFFFFFFFFFFFFFFFFFFFFFFFFFFF NOT AND DUP3 PUSH28 0xFFFFFFFFFFFFFFFFFFFFFFFFFFFFFFFFFFFFFFFFFFFFFFFFFFFFFFFF NOT AND EQ SWAP1 POP SWAP2 SWAP1 POP JUMP JUMPDEST PUSH0 PUSH0 PUSH2 0xD03 DUP4 PUSH2 0x13ED JUMP JUMPDEST SWAP1 POP PUSH0 PUSH20 0xFFFFFFFFFFFFFFFFFFFFFFFFFFFFFFFFFFFFFFFF AND DUP2 PUSH20 0xFFFFFFFFFFFFFFFFFFFFFFFFFFFFFFFFFFFFFFFF AND SUB PUSH2 0xD75 JUMPI DUP3 PUSH1 0x40 MLOAD PUSH32 0x7E27328900000000000000000000000000000000000000000000000000000000 DUP2 MSTORE PUSH1 0x4 ADD PUSH2 0xD6C SWAP2 SWAP1 PUSH2 0x1EBD JUMP JUMPDEST PUSH1 0x40 MLOAD DUP1 SWAP2 SUB SWAP1 REVERT JUMPDEST DUP1 SWAP2 POP POP SWAP2 SWAP1 POP JUMP JUMPDEST PUSH0 PUSH1 0x4 PUSH0 DUP4 DUP2 MSTORE PUSH1 0x20 ADD SWAP1 DUP2 MSTORE PUSH1 0x20 ADD PUSH0 KECCAK256 PUSH0 SWAP1 SLOAD SWAP1 PUSH2 0x100 EXP SWAP1 DIV PUSH20 0xFFFFFFFFFFFFFFFFFFFFFFFFFFFFFFFFFFFFFFFF AND SWAP1 POP SWAP2 SWAP1 POP JUMP JUMPDEST PUSH0 CALLER SWAP1 POP SWAP1 JUMP JUMPDEST PUSH2 0xDCB DUP4 DUP4 DUP4 PUSH1 0x1 PUSH2 0x1426 JUMP JUMPDEST POP POP POP JUMP JUMPDEST PUSH0 PUSH0 PUSH2 0xDDB DUP5 PUSH2 0x13ED JUMP JUMPDEST SWAP1 POP PUSH0 PUSH20 0xFFFFFFFFFFFFFFFFFFFFFFFFFFFFFFFFFFFFFFFF AND DUP4 PUSH20 0xFFFFFFFFFFFFFFFFFFFFFFFFFFFFFFFFFFFFFFFF AND EQ PUSH2 0xE1C JUMPI PUSH2 0xE1B DUP2 DUP5 DUP7 PUSH2 0x15E5 JUMP JUMPDEST JUMPDEST PUSH0 PUSH20 0xFFFFFFFFFFFFFFFFFFFFFFFFFFFFFFFFFFFFFFFF AND DUP2 PUSH20 0xFFFFFFFFFFFFFFFFFFFFFFFFFFFFFFFFFFFFFFFF AND EQ PUSH2 0xEA7 JUMPI PUSH2 0xE5B PUSH0 DUP6 PUSH0 PUSH0 PUSH2 0x1426 JUMP JUMPDEST PUSH1 0x1 PUSH1 0x3 PUSH0 DUP4 PUSH20 0xFFFFFFFFFFFFFFFFFFFFFFFFFFFFFFFFFFFFFFFF AND PUSH20 0xFFFFFFFFFFFFFFFFFFFFFFFFFFFFFFFFFFFFFFFF AND DUP2 MSTORE PUSH1 0x20 ADD SWAP1 DUP2 MSTORE PUSH1 0x20 ADD PUSH0 KECCAK256 PUSH0 DUP3 DUP3 SLOAD SUB SWAP3 POP POP DUP2 SWAP1 SSTORE POP JUMPDEST PUSH0 PUSH20 0xFFFFFFFFFFFFFFFFFFFFFFFFFFFFFFFFFFFFFFFF AND DUP6 PUSH20 0xFFFFFFFFFFFFFFFFFFFFFFFFFFFFFFFFFFFFFFFF AND EQ PUSH2 0xF26 JUMPI PUSH1 0x1 PUSH1 0x3 PUSH0 DUP8 PUSH20 0xFFFFFFFFFFFFFFFFFFFFFFFFFFFFFFFFFFFFFFFF AND PUSH20 0xFFFFFFFFFFFFFFFFFFFFFFFFFFFFFFFFFFFFFFFF AND DUP2 MSTORE PUSH1 0x20 ADD SWAP1 DUP2 MSTORE PUSH1 0x20 ADD PUSH0 KECCAK256 PUSH0 DUP3 DUP3 SLOAD ADD SWAP3 POP POP DUP2 SWAP1 SSTORE POP JUMPDEST DUP5 PUSH1 0x2 PUSH0 DUP7 DUP2 MSTORE PUSH1 0x20 ADD SWAP1 DUP2 MSTORE PUSH1 0x20 ADD PUSH0 KECCAK256 PUSH0 PUSH2 0x100 EXP DUP2 SLOAD DUP2 PUSH20 0xFFFFFFFFFFFFFFFFFFFFFFFFFFFFFFFFFFFFFFFF MUL NOT AND SWAP1 DUP4 PUSH20 0xFFFFFFFFFFFFFFFFFFFFFFFFFFFFFFFFFFFFFFFF AND MUL OR SWAP1 SSTORE POP DUP4 DUP6 PUSH20 0xFFFFFFFFFFFFFFFFFFFFFFFFFFFFFFFFFFFFFFFF AND DUP3 PUSH20 0xFFFFFFFFFFFFFFFFFFFFFFFFFFFFFFFFFFFFFFFF AND PUSH32 0xDDF252AD1BE2C89B69C2B068FC378DAA952BA7F163C4A11628F55A4DF523B3EF PUSH1 0x40 MLOAD PUSH1 0x40 MLOAD DUP1 SWAP2 SUB SWAP1 LOG4 DUP1 SWAP2 POP POP SWAP4 SWAP3 POP POP POP JUMP JUMPDEST PUSH2 0xFF4 DUP3 DUP3 PUSH1 0x40 MLOAD DUP1 PUSH1 0x20 ADD PUSH1 0x40 MSTORE DUP1 PUSH0 DUP2 MSTORE POP PUSH2 0x16A8 JUMP JUMPDEST POP POP JUMP JUMPDEST PUSH0 PUSH20 0xFFFFFFFFFFFFFFFFFFFFFFFFFFFFFFFFFFFFFFFF AND DUP3 PUSH20 0xFFFFFFFFFFFFFFFFFFFFFFFFFFFFFFFFFFFFFFFF AND SUB PUSH2 0x1068 JUMPI DUP2 PUSH1 0x40 MLOAD PUSH32 0x5B08BA1800000000000000000000000000000000000000000000000000000000 DUP2 MSTORE PUSH1 0x4 ADD PUSH2 0x105F SWAP2 SWAP1 PUSH2 0x1BC0 JUMP JUMPDEST PUSH1 0x40 MLOAD DUP1 SWAP2 SUB SWAP1 REVERT JUMPDEST DUP1 PUSH1 0x5 PUSH0 DUP6 PUSH20 0xFFFFFFFFFFFFFFFFFFFFFFFFFFFFFFFFFFFFFFFF AND PUSH20 0xFFFFFFFFFFFFFFFFFFFFFFFFFFFFFFFFFFFFFFFF AND DUP2 MSTORE PUSH1 0x20 ADD SWAP1 DUP2 MSTORE PUSH1 0x20 ADD PUSH0 KECCAK256 PUSH0 DUP5 PUSH20 0xFFFFFFFFFFFFFFFFFFFFFFFFFFFFFFFFFFFFFFFF AND PUSH20 0xFFFFFFFFFFFFFFFFFFFFFFFFFFFFFFFFFFFFFFFF AND DUP2 MSTORE PUSH1 0x20 ADD SWAP1 DUP2 MSTORE PUSH1 0x20 ADD PUSH0 KECCAK256 PUSH0 PUSH2 0x100 EXP DUP2 SLOAD DUP2 PUSH1 0xFF MUL NOT AND SWAP1 DUP4 ISZERO ISZERO MUL OR SWAP1 SSTORE POP DUP2 PUSH20 0xFFFFFFFFFFFFFFFFFFFFFFFFFFFFFFFFFFFFFFFF AND DUP4 PUSH20 0xFFFFFFFFFFFFFFFFFFFFFFFFFFFFFFFFFFFFFFFF AND PUSH32 0x17307EAB39AB6107E8899845AD3D59BD9653F200F220920489CA2B5937696C31 DUP4 PUSH1 0x40 MLOAD PUSH2 0x1154 SWAP2 SWAP1 PUSH2 0x1A7A JUMP JUMPDEST PUSH1 0x40 MLOAD DUP1 SWAP2 SUB SWAP1 LOG3 POP POP POP JUMP JUMPDEST PUSH0 DUP4 PUSH20 0xFFFFFFFFFFFFFFFFFFFFFFFFFFFFFFFFFFFFFFFF AND EXTCODESIZE GT ISZERO PUSH2 0x1306 JUMPI DUP3 PUSH20 0xFFFFFFFFFFFFFFFFFFFFFFFFFFFFFFFFFFFFFFFF AND PUSH4 0x150B7A02 DUP7 DUP7 DUP6 DUP6 PUSH1 0x40 MLOAD DUP6 PUSH4 0xFFFFFFFF AND PUSH1 0xE0 SHL DUP2 MSTORE PUSH1 0x4 ADD PUSH2 0x11BF SWAP5 SWAP4 SWAP3 SWAP2 SWAP1 PUSH2 0x2636 JUMP JUMPDEST PUSH1 0x20 PUSH1 0x40 MLOAD DUP1 DUP4 SUB DUP2 PUSH0 DUP8 GAS CALL SWAP3 POP POP POP DUP1 ISZERO PUSH2 0x11FA JUMPI POP PUSH1 0x40 MLOAD RETURNDATASIZE PUSH1 0x1F NOT PUSH1 0x1F DUP3 ADD AND DUP3 ADD DUP1 PUSH1 0x40 MSTORE POP DUP2 ADD SWAP1 PUSH2 0x11F7 SWAP2 SWAP1 PUSH2 0x2694 JUMP JUMPDEST PUSH1 0x1 JUMPDEST PUSH2 0x127B JUMPI RETURNDATASIZE DUP1 PUSH0 DUP2 EQ PUSH2 0x1228 JUMPI PUSH1 0x40 MLOAD SWAP2 POP PUSH1 0x1F NOT PUSH1 0x3F RETURNDATASIZE ADD AND DUP3 ADD PUSH1 0x40 MSTORE RETURNDATASIZE DUP3 MSTORE RETURNDATASIZE PUSH0 PUSH1 0x20 DUP5 ADD RETURNDATACOPY PUSH2 0x122D JUMP JUMPDEST PUSH1 0x60 SWAP2 POP JUMPDEST POP PUSH0 DUP2 MLOAD SUB PUSH2 0x1273 JUMPI DUP4 PUSH1 0x40 MLOAD PUSH32 0x64A0AE9200000000000000000000000000000000000000000000000000000000 DUP2 MSTORE PUSH1 0x4 ADD PUSH2 0x126A SWAP2 SWAP1 PUSH2 0x1BC0 JUMP JUMPDEST PUSH1 0x40 MLOAD DUP1 SWAP2 SUB SWAP1 REVERT JUMPDEST DUP1 MLOAD PUSH1 0x20 DUP3 ADD REVERT JUMPDEST PUSH4 0x150B7A02 PUSH1 0xE0 SHL PUSH28 0xFFFFFFFFFFFFFFFFFFFFFFFFFFFFFFFFFFFFFFFFFFFFFFFFFFFFFFFF NOT AND DUP2 PUSH28 0xFFFFFFFFFFFFFFFFFFFFFFFFFFFFFFFFFFFFFFFFFFFFFFFFFFFFFFFF NOT AND EQ PUSH2 0x1304 JUMPI DUP4 PUSH1 0x40 MLOAD PUSH32 0x64A0AE9200000000000000000000000000000000000000000000000000000000 DUP2 MSTORE PUSH1 0x4 ADD PUSH2 0x12FB SWAP2 SWAP1 PUSH2 0x1BC0 JUMP JUMPDEST PUSH1 0x40 MLOAD DUP1 SWAP2 SUB SWAP1 REVERT JUMPDEST POP JUMPDEST POP POP POP POP POP JUMP JUMPDEST PUSH1 0x60 PUSH1 0x40 MLOAD DUP1 PUSH1 0x20 ADD PUSH1 0x40 MSTORE DUP1 PUSH0 DUP2 MSTORE POP SWAP1 POP SWAP1 JUMP JUMPDEST PUSH1 0x60 PUSH0 PUSH1 0x1 PUSH2 0x1331 DUP5 PUSH2 0x16CB JUMP JUMPDEST ADD SWAP1 POP PUSH0 DUP2 PUSH8 0xFFFFFFFFFFFFFFFF DUP2 GT ISZERO PUSH2 0x134F JUMPI PUSH2 0x134E PUSH2 0x1CD7 JUMP JUMPDEST JUMPDEST PUSH1 0x40 MLOAD SWAP1 DUP1 DUP3 MSTORE DUP1 PUSH1 0x1F ADD PUSH1 0x1F NOT AND PUSH1 0x20 ADD DUP3 ADD PUSH1 0x40 MSTORE DUP1 ISZERO PUSH2 0x1381 JUMPI DUP2 PUSH1 0x20 ADD PUSH1 0x1 DUP3 MUL DUP1 CALLDATASIZE DUP4 CALLDATACOPY DUP1 DUP3 ADD SWAP2 POP POP SWAP1 POP JUMPDEST POP SWAP1 POP PUSH0 DUP3 PUSH1 0x20 DUP4 ADD ADD SWAP1 POP JUMPDEST PUSH1 0x1 ISZERO PUSH2 0x13E2 JUMPI DUP1 DUP1 PUSH1 0x1 SWAP1 SUB SWAP2 POP POP PUSH32 0x3031323334353637383961626364656600000000000000000000000000000000 PUSH1 0xA DUP7 MOD BYTE DUP2 MSTORE8 PUSH1 0xA DUP6 DUP2 PUSH2 0x13D7 JUMPI PUSH2 0x13D6 PUSH2 0x26BF JUMP JUMPDEST JUMPDEST DIV SWAP5 POP PUSH0 DUP6 SUB PUSH2 0x138E JUMPI JUMPDEST DUP2 SWAP4 POP POP POP POP SWAP2 SWAP1 POP JUMP JUMPDEST PUSH0 PUSH1 0x2 PUSH0 DUP4 DUP2 MSTORE PUSH1 0x20 ADD SWAP1 DUP2 MSTORE PUSH1 0x20 ADD PUSH0 KECCAK256 PUSH0 SWAP1 SLOAD SWAP1 PUSH2 0x100 EXP SWAP1 DIV PUSH20 0xFFFFFFFFFFFFFFFFFFFFFFFFFFFFFFFFFFFFFFFF AND SWAP1 POP SWAP2 SWAP1 POP JUMP JUMPDEST DUP1 DUP1 PUSH2 0x145E JUMPI POP PUSH0 PUSH20 0xFFFFFFFFFFFFFFFFFFFFFFFFFFFFFFFFFFFFFFFF AND DUP3 PUSH20 0xFFFFFFFFFFFFFFFFFFFFFFFFFFFFFFFFFFFFFFFF AND EQ ISZERO JUMPDEST ISZERO PUSH2 0x1590 JUMPI PUSH0 PUSH2 0x146D DUP5 PUSH2 0xCF8 JUMP JUMPDEST SWAP1 POP PUSH0 PUSH20 0xFFFFFFFFFFFFFFFFFFFFFFFFFFFFFFFFFFFFFFFF AND DUP4 PUSH20 0xFFFFFFFFFFFFFFFFFFFFFFFFFFFFFFFFFFFFFFFF AND EQ ISZERO DUP1 ISZERO PUSH2 0x14D7 JUMPI POP DUP3 PUSH20 0xFFFFFFFFFFFFFFFFFFFFFFFFFFFFFFFFFFFFFFFF AND DUP2 PUSH20 0xFFFFFFFFFFFFFFFFFFFFFFFFFFFFFFFFFFFFFFFF AND EQ ISZERO JUMPDEST DUP1 ISZERO PUSH2 0x14EA JUMPI POP PUSH2 0x14E8 DUP2 DUP5 PUSH2 0xBDC JUMP JUMPDEST ISZERO JUMPDEST ISZERO PUSH2 0x152C JUMPI DUP3 PUSH1 0x40 MLOAD PUSH32 0xA9FBF51F00000000000000000000000000000000000000000000000000000000 DUP2 MSTORE PUSH1 0x4 ADD PUSH2 0x1523 SWAP2 SWAP1 PUSH2 0x1BC0 JUMP JUMPDEST PUSH1 0x40 MLOAD DUP1 SWAP2 SUB SWAP1 REVERT JUMPDEST DUP2 ISZERO PUSH2 0x158E JUMPI DUP4 DUP6 PUSH20 0xFFFFFFFFFFFFFFFFFFFFFFFFFFFFFFFFFFFFFFFF AND DUP3 PUSH20 0xFFFFFFFFFFFFFFFFFFFFFFFFFFFFFFFFFFFFFFFF AND PUSH32 0x8C5BE1E5EBEC7D5BD14F71427D1E84F3DD0314C0F7B2291E5B200AC8C7C3B925 PUSH1 0x40 MLOAD PUSH1 0x40 MLOAD DUP1 SWAP2 SUB SWAP1 LOG4 JUMPDEST POP JUMPDEST DUP4 PUSH1 0x4 PUSH0 DUP6 DUP2 MSTORE PUSH1 0x20 ADD SWAP1 DUP2 MSTORE PUSH1 0x20 ADD PUSH0 KECCAK256 PUSH0 PUSH2 0x100 EXP DUP2 SLOAD DUP2 PUSH20 0xFFFFFFFFFFFFFFFFFFFFFFFFFFFFFFFFFFFFFFFF MUL NOT AND SWAP1 DUP4 PUSH20 0xFFFFFFFFFFFFFFFFFFFFFFFFFFFFFFFFFFFFFFFF AND MUL OR SWAP1 SSTORE POP POP POP POP POP JUMP JUMPDEST PUSH2 0x15F0 DUP4 DUP4 DUP4 PUSH2 0x181C JUMP JUMPDEST PUSH2 0x16A3 JUMPI PUSH0 PUSH20 0xFFFFFFFFFFFFFFFFFFFFFFFFFFFFFFFFFFFFFFFF AND DUP4 PUSH20 0xFFFFFFFFFFFFFFFFFFFFFFFFFFFFFFFFFFFFFFFF AND SUB PUSH2 0x1664 JUMPI DUP1 PUSH1 0x40 MLOAD PUSH32 0x7E27328900000000000000000000000000000000000000000000000000000000 DUP2 MSTORE PUSH1 0x4 ADD PUSH2 0x165B SWAP2 SWAP1 PUSH2 0x1EBD JUMP JUMPDEST PUSH1 0x40 MLOAD DUP1 SWAP2 SUB SWAP1 REVERT JUMPDEST DUP2 DUP2 PUSH1 0x40 MLOAD PUSH32 0x177E802F00000000000000000000000000000000000000000000000000000000 DUP2 MSTORE PUSH1 0x4 ADD PUSH2 0x169A SWAP3 SWAP2 SWAP1 PUSH2 0x26EC JUMP JUMPDEST PUSH1 0x40 MLOAD DUP1 SWAP2 SUB SWAP1 REVERT JUMPDEST POP POP POP JUMP JUMPDEST PUSH2 0x16B2 DUP4 DUP4 PUSH2 0x18DC JUMP JUMPDEST PUSH2 0x16C6 PUSH2 0x16BD PUSH2 0xDB7 JUMP JUMPDEST PUSH0 DUP6 DUP6 DUP6 PUSH2 0x1161 JUMP JUMPDEST POP POP POP JUMP JUMPDEST PUSH0 PUSH0 PUSH0 SWAP1 POP PUSH27 0x184F03E93FF9F4DAA797ED6E38ED64BF6A1F010000000000000000 DUP4 LT PUSH2 0x1727 JUMPI PUSH27 0x184F03E93FF9F4DAA797ED6E38ED64BF6A1F010000000000000000 DUP4 DUP2 PUSH2 0x171D JUMPI PUSH2 0x171C PUSH2 0x26BF JUMP JUMPDEST JUMPDEST DIV SWAP3 POP PUSH1 0x40 DUP2 ADD SWAP1 POP JUMPDEST PUSH14 0x4EE2D6D415B85ACEF8100000000 DUP4 LT PUSH2 0x1764 JUMPI PUSH14 0x4EE2D6D415B85ACEF8100000000 DUP4 DUP2 PUSH2 0x175A JUMPI PUSH2 0x1759 PUSH2 0x26BF JUMP JUMPDEST JUMPDEST DIV SWAP3 POP PUSH1 0x20 DUP2 ADD SWAP1 POP JUMPDEST PUSH7 0x2386F26FC10000 DUP4 LT PUSH2 0x1793 JUMPI PUSH7 0x2386F26FC10000 DUP4 DUP2 PUSH2 0x1789 JUMPI PUSH2 0x1788 PUSH2 0x26BF JUMP JUMPDEST JUMPDEST DIV SWAP3 POP PUSH1 0x10 DUP2 ADD SWAP1 POP JUMPDEST PUSH4 0x5F5E100 DUP4 LT PUSH2 0x17BC JUMPI PUSH4 0x5F5E100 DUP4 DUP2 PUSH2 0x17B2 JUMPI PUSH2 0x17B1 PUSH2 0x26BF JUMP JUMPDEST JUMPDEST DIV SWAP3 POP PUSH1 0x8 DUP2 ADD SWAP1 POP JUMPDEST PUSH2 0x2710 DUP4 LT PUSH2 0x17E1 JUMPI PUSH2 0x2710 DUP4 DUP2 PUSH2 0x17D7 JUMPI PUSH2 0x17D6 PUSH2 0x26BF JUMP JUMPDEST JUMPDEST DIV SWAP3 POP PUSH1 0x4 DUP2 ADD SWAP1 POP JUMPDEST PUSH1 0x64 DUP4 LT PUSH2 0x1804 JUMPI PUSH1 0x64 DUP4 DUP2 PUSH2 0x17FA JUMPI PUSH2 0x17F9 PUSH2 0x26BF JUMP JUMPDEST JUMPDEST DIV SWAP3 POP PUSH1 0x2 DUP2 ADD SWAP1 POP JUMPDEST PUSH1 0xA DUP4 LT PUSH2 0x1813 JUMPI PUSH1 0x1 DUP2 ADD SWAP1 POP JUMPDEST DUP1 SWAP2 POP POP SWAP2 SWAP1 POP JUMP JUMPDEST PUSH0 PUSH0 PUSH20 0xFFFFFFFFFFFFFFFFFFFFFFFFFFFFFFFFFFFFFFFF AND DUP4 PUSH20 0xFFFFFFFFFFFFFFFFFFFFFFFFFFFFFFFFFFFFFFFF AND EQ ISZERO DUP1 ISZERO PUSH2 0x18D3 JUMPI POP DUP3 PUSH20 0xFFFFFFFFFFFFFFFFFFFFFFFFFFFFFFFFFFFFFFFF AND DUP5 PUSH20 0xFFFFFFFFFFFFFFFFFFFFFFFFFFFFFFFFFFFFFFFF AND EQ DUP1 PUSH2 0x1894 JUMPI POP PUSH2 0x1893 DUP5 DUP5 PUSH2 0xBDC JUMP JUMPDEST JUMPDEST DUP1 PUSH2 0x18D2 JUMPI POP DUP3 PUSH20 0xFFFFFFFFFFFFFFFFFFFFFFFFFFFFFFFFFFFFFFFF AND PUSH2 0x18BA DUP4 PUSH2 0xD7E JUMP JUMPDEST PUSH20 0xFFFFFFFFFFFFFFFFFFFFFFFFFFFFFFFFFFFFFFFF AND EQ JUMPDEST JUMPDEST SWAP1 POP SWAP4 SWAP3 POP POP POP JUMP JUMPDEST PUSH0 PUSH20 0xFFFFFFFFFFFFFFFFFFFFFFFFFFFFFFFFFFFFFFFF AND DUP3 PUSH20 0xFFFFFFFFFFFFFFFFFFFFFFFFFFFFFFFFFFFFFFFF AND SUB PUSH2 0x194C JUMPI PUSH0 PUSH1 0x40 MLOAD PUSH32 0x64A0AE9200000000000000000000000000000000000000000000000000000000 DUP2 MSTORE PUSH1 0x4 ADD PUSH2 0x1943 SWAP2 SWAP1 PUSH2 0x1BC0 JUMP JUMPDEST PUSH1 0x40 MLOAD DUP1 SWAP2 SUB SWAP1 REVERT JUMPDEST PUSH0 PUSH2 0x1958 DUP4 DUP4 PUSH0 PUSH2 0xDD0 JUMP JUMPDEST SWAP1 POP PUSH0 PUSH20 0xFFFFFFFFFFFFFFFFFFFFFFFFFFFFFFFFFFFFFFFF AND DUP2 PUSH20 0xFFFFFFFFFFFFFFFFFFFFFFFFFFFFFFFFFFFFFFFF AND EQ PUSH2 0x19CA JUMPI PUSH0 PUSH1 0x40 MLOAD PUSH32 0x73C6AC6E00000000000000000000000000000000000000000000000000000000 DUP2 MSTORE PUSH1 0x4 ADD PUSH2 0x19C1 SWAP2 SWAP1 PUSH2 0x1BC0 JUMP JUMPDEST PUSH1 0x40 MLOAD DUP1 SWAP2 SUB SWAP1 REVERT JUMPDEST POP POP POP JUMP JUMPDEST PUSH0 PUSH1 0x40 MLOAD SWAP1 POP SWAP1 JUMP JUMPDEST PUSH0 PUSH0 REVERT JUMPDEST PUSH0 PUSH0 REVERT JUMPDEST PUSH0 PUSH32 0xFFFFFFFF00000000000000000000000000000000000000000000000000000000 DUP3 AND SWAP1 POP SWAP2 SWAP1 POP JUMP JUMPDEST PUSH2 0x1A14 DUP2 PUSH2 0x19E0 JUMP JUMPDEST DUP2 EQ PUSH2 0x1A1E JUMPI PUSH0 PUSH0 REVERT JUMPDEST POP JUMP JUMPDEST PUSH0 DUP2 CALLDATALOAD SWAP1 POP PUSH2 0x1A2F DUP2 PUSH2 0x1A0B JUMP JUMPDEST SWAP3 SWAP2 POP POP JUMP JUMPDEST PUSH0 PUSH1 0x20 DUP3 DUP5 SUB SLT ISZERO PUSH2 0x1A4A JUMPI PUSH2 0x1A49 PUSH2 0x19D8 JUMP JUMPDEST JUMPDEST PUSH0 PUSH2 0x1A57 DUP5 DUP3 DUP6 ADD PUSH2 0x1A21 JUMP JUMPDEST SWAP2 POP POP SWAP3 SWAP2 POP POP JUMP JUMPDEST PUSH0 DUP2 ISZERO ISZERO SWAP1 POP SWAP2 SWAP1 POP JUMP JUMPDEST PUSH2 0x1A74 DUP2 PUSH2 0x1A60 JUMP JUMPDEST DUP3 MSTORE POP POP JUMP JUMPDEST PUSH0 PUSH1 0x20 DUP3 ADD SWAP1 POP PUSH2 0x1A8D PUSH0 DUP4 ADD DUP5 PUSH2 0x1A6B JUMP JUMPDEST SWAP3 SWAP2 POP POP JUMP JUMPDEST PUSH0 DUP2 MLOAD SWAP1 POP SWAP2 SWAP1 POP JUMP JUMPDEST PUSH0 DUP3 DUP3 MSTORE PUSH1 0x20 DUP3 ADD SWAP1 POP SWAP3 SWAP2 POP POP JUMP JUMPDEST DUP3 DUP2 DUP4 MCOPY PUSH0 DUP4 DUP4 ADD MSTORE POP POP POP JUMP JUMPDEST PUSH0 PUSH1 0x1F NOT PUSH1 0x1F DUP4 ADD AND SWAP1 POP SWAP2 SWAP1 POP JUMP JUMPDEST PUSH0 PUSH2 0x1AD5 DUP3 PUSH2 0x1A93 JUMP JUMPDEST PUSH2 0x1ADF DUP2 DUP6 PUSH2 0x1A9D JUMP JUMPDEST SWAP4 POP PUSH2 0x1AEF DUP2 DUP6 PUSH1 0x20 DUP7 ADD PUSH2 0x1AAD JUMP JUMPDEST PUSH2 0x1AF8 DUP2 PUSH2 0x1ABB JUMP JUMPDEST DUP5 ADD SWAP2 POP POP SWAP3 SWAP2 POP POP JUMP JUMPDEST PUSH0 PUSH1 0x20 DUP3 ADD SWAP1 POP DUP2 DUP2 SUB PUSH0 DUP4 ADD MSTORE PUSH2 0x1B1B DUP2 DUP5 PUSH2 0x1ACB JUMP JUMPDEST SWAP1 POP SWAP3 SWAP2 POP POP JUMP JUMPDEST PUSH0 DUP2 SWAP1 POP SWAP2 SWAP1 POP JUMP JUMPDEST PUSH2 0x1B35 DUP2 PUSH2 0x1B23 JUMP JUMPDEST DUP2 EQ PUSH2 0x1B3F JUMPI PUSH0 PUSH0 REVERT JUMPDEST POP JUMP JUMPDEST PUSH0 DUP2 CALLDATALOAD SWAP1 POP PUSH2 0x1B50 DUP2 PUSH2 0x1B2C JUMP JUMPDEST SWAP3 SWAP2 POP POP JUMP JUMPDEST PUSH0 PUSH1 0x20 DUP3 DUP5 SUB SLT ISZERO PUSH2 0x1B6B JUMPI PUSH2 0x1B6A PUSH2 0x19D8 JUMP JUMPDEST JUMPDEST PUSH0 PUSH2 0x1B78 DUP5 DUP3 DUP6 ADD PUSH2 0x1B42 JUMP JUMPDEST SWAP2 POP POP SWAP3 SWAP2 POP POP JUMP JUMPDEST PUSH0 PUSH20 0xFFFFFFFFFFFFFFFFFFFFFFFFFFFFFFFFFFFFFFFF DUP3 AND SWAP1 POP SWAP2 SWAP1 POP JUMP JUMPDEST PUSH0 PUSH2 0x1BAA DUP3 PUSH2 0x1B81 JUMP JUMPDEST SWAP1 POP SWAP2 SWAP1 POP JUMP JUMPDEST PUSH2 0x1BBA DUP2 PUSH2 0x1BA0 JUMP JUMPDEST DUP3 MSTORE POP POP JUMP JUMPDEST PUSH0 PUSH1 0x20 DUP3 ADD SWAP1 POP PUSH2 0x1BD3 PUSH0 DUP4 ADD DUP5 PUSH2 0x1BB1 JUMP JUMPDEST SWAP3 SWAP2 POP POP JUMP JUMPDEST PUSH2 0x1BE2 DUP2 PUSH2 0x1BA0 JUMP JUMPDEST DUP2 EQ PUSH2 0x1BEC JUMPI PUSH0 PUSH0 REVERT JUMPDEST POP JUMP JUMPDEST PUSH0 DUP2 CALLDATALOAD SWAP1 POP PUSH2 0x1BFD DUP2 PUSH2 0x1BD9 JUMP JUMPDEST SWAP3 SWAP2 POP POP JUMP JUMPDEST PUSH0 PUSH0 PUSH1 0x40 DUP4 DUP6 SUB SLT ISZERO PUSH2 0x1C19 JUMPI PUSH2 0x1C18 PUSH2 0x19D8 JUMP JUMPDEST JUMPDEST PUSH0 PUSH2 0x1C26 DUP6 DUP3 DUP7 ADD PUSH2 0x1BEF JUMP JUMPDEST SWAP3 POP POP PUSH1 0x20 PUSH2 0x1C37 DUP6 DUP3 DUP7 ADD PUSH2 0x1B42 JUMP JUMPDEST SWAP2 POP POP SWAP3 POP SWAP3 SWAP1 POP JUMP JUMPDEST PUSH0 PUSH0 PUSH0 PUSH1 0x60 DUP5 DUP7 SUB SLT ISZERO PUSH2 0x1C58 JUMPI PUSH2 0x1C57 PUSH2 0x19D8 JUMP JUMPDEST JUMPDEST PUSH0 PUSH2 0x1C65 DUP7 DUP3 DUP8 ADD PUSH2 0x1BEF JUMP JUMPDEST SWAP4 POP POP PUSH1 0x20 PUSH2 0x1C76 DUP7 DUP3 DUP8 ADD PUSH2 0x1BEF JUMP JUMPDEST SWAP3 POP POP PUSH1 0x40 PUSH2 0x1C87 DUP7 DUP3 DUP8 ADD PUSH2 0x1B42 JUMP JUMPDEST SWAP2 POP POP SWAP3 POP SWAP3 POP SWAP3 JUMP JUMPDEST PUSH0 PUSH0 PUSH1 0x40 DUP4 DUP6 SUB SLT ISZERO PUSH2 0x1CA7 JUMPI PUSH2 0x1CA6 PUSH2 0x19D8 JUMP JUMPDEST JUMPDEST PUSH0 PUSH2 0x1CB4 DUP6 DUP3 DUP7 ADD PUSH2 0x1B42 JUMP JUMPDEST SWAP3 POP POP PUSH1 0x20 PUSH2 0x1CC5 DUP6 DUP3 DUP7 ADD PUSH2 0x1B42 JUMP JUMPDEST SWAP2 POP POP SWAP3 POP SWAP3 SWAP1 POP JUMP JUMPDEST PUSH0 PUSH0 REVERT JUMPDEST PUSH0 PUSH0 REVERT JUMPDEST PUSH32 0x4E487B7100000000000000000000000000000000000000000000000000000000 PUSH0 MSTORE PUSH1 0x41 PUSH1 0x4 MSTORE PUSH1 0x24 PUSH0 REVERT JUMPDEST PUSH2 0x1D0D DUP3 PUSH2 0x1ABB JUMP JUMPDEST DUP2 ADD DUP2 DUP2 LT PUSH8 0xFFFFFFFFFFFFFFFF DUP3 GT OR ISZERO PUSH2 0x1D2C JUMPI PUSH2 0x1D2B PUSH2 0x1CD7 JUMP JUMPDEST JUMPDEST DUP1 PUSH1 0x40 MSTORE POP POP POP JUMP JUMPDEST PUSH0 PUSH2 0x1D3E PUSH2 0x19CF JUMP JUMPDEST SWAP1 POP PUSH2 0x1D4A DUP3 DUP3 PUSH2 0x1D04 JUMP JUMPDEST SWAP2 SWAP1 POP JUMP JUMPDEST PUSH0 PUSH8 0xFFFFFFFFFFFFFFFF DUP3 GT ISZERO PUSH2 0x1D69 JUMPI PUSH2 0x1D68 PUSH2 0x1CD7 JUMP JUMPDEST JUMPDEST PUSH2 0x1D72 DUP3 PUSH2 0x1ABB JUMP JUMPDEST SWAP1 POP PUSH1 0x20 DUP2 ADD SWAP1 POP SWAP2 SWAP1 POP JUMP JUMPDEST DUP3 DUP2 DUP4 CALLDATACOPY PUSH0 DUP4 DUP4 ADD MSTORE POP POP POP JUMP JUMPDEST PUSH0 PUSH2 0x1D9F PUSH2 0x1D9A DUP5 PUSH2 0x1D4F JUMP JUMPDEST PUSH2 0x1D35 JUMP JUMPDEST SWAP1 POP DUP3 DUP2 MSTORE PUSH1 0x20 DUP2 ADD DUP5 DUP5 DUP5 ADD GT ISZERO PUSH2 0x1DBB JUMPI PUSH2 0x1DBA PUSH2 0x1CD3 JUMP JUMPDEST JUMPDEST PUSH2 0x1DC6 DUP5 DUP3 DUP6 PUSH2 0x1D7F JUMP JUMPDEST POP SWAP4 SWAP3 POP POP POP JUMP JUMPDEST PUSH0 DUP3 PUSH1 0x1F DUP4 ADD SLT PUSH2 0x1DE2 JUMPI PUSH2 0x1DE1 PUSH2 0x1CCF JUMP JUMPDEST JUMPDEST DUP2 CALLDATALOAD PUSH2 0x1DF2 DUP5 DUP3 PUSH1 0x20 DUP7 ADD PUSH2 0x1D8D JUMP JUMPDEST SWAP2 POP POP SWAP3 SWAP2 POP POP JUMP JUMPDEST PUSH0 PUSH0 PUSH0 PUSH1 0x60 DUP5 DUP7 SUB SLT ISZERO PUSH2 0x1E12 JUMPI PUSH2 0x1E11 PUSH2 0x19D8 JUMP JUMPDEST JUMPDEST PUSH0 DUP5 ADD CALLDATALOAD PUSH8 0xFFFFFFFFFFFFFFFF DUP2 GT ISZERO PUSH2 0x1E2F JUMPI PUSH2 0x1E2E PUSH2 0x19DC JUMP JUMPDEST JUMPDEST PUSH2 0x1E3B DUP7 DUP3 DUP8 ADD PUSH2 0x1DCE JUMP JUMPDEST SWAP4 POP POP PUSH1 0x20 PUSH2 0x1E4C DUP7 DUP3 DUP8 ADD PUSH2 0x1BEF JUMP JUMPDEST SWAP3 POP POP PUSH1 0x40 DUP5 ADD CALLDATALOAD PUSH8 0xFFFFFFFFFFFFFFFF DUP2 GT ISZERO PUSH2 0x1E6D JUMPI PUSH2 0x1E6C PUSH2 0x19DC JUMP JUMPDEST JUMPDEST PUSH2 0x1E79 DUP7 DUP3 DUP8 ADD PUSH2 0x1DCE JUMP JUMPDEST SWAP2 POP POP SWAP3 POP SWAP3 POP SWAP3 JUMP JUMPDEST PUSH0 PUSH1 0x20 DUP3 DUP5 SUB SLT ISZERO PUSH2 0x1E98 JUMPI PUSH2 0x1E97 PUSH2 0x19D8 JUMP JUMPDEST JUMPDEST PUSH0 PUSH2 0x1EA5 DUP5 DUP3 DUP6 ADD PUSH2 0x1BEF JUMP JUMPDEST SWAP2 POP POP SWAP3 SWAP2 POP POP JUMP JUMPDEST PUSH2 0x1EB7 DUP2 PUSH2 0x1B23 JUMP JUMPDEST DUP3 MSTORE POP POP JUMP JUMPDEST PUSH0 PUSH1 0x20 DUP3 ADD SWAP1 POP PUSH2 0x1ED0 PUSH0 DUP4 ADD DUP5 PUSH2 0x1EAE JUMP JUMPDEST SWAP3 SWAP2 POP POP JUMP JUMPDEST PUSH0 PUSH1 0x60 DUP3 ADD SWAP1 POP DUP2 DUP2 SUB PUSH0 DUP4 ADD MSTORE PUSH2 0x1EEE DUP2 DUP7 PUSH2 0x1ACB JUMP JUMPDEST SWAP1 POP PUSH2 0x1EFD PUSH1 0x20 DUP4 ADD DUP6 PUSH2 0x1EAE JUMP JUMPDEST DUP2 DUP2 SUB PUSH1 0x40 DUP4 ADD MSTORE PUSH2 0x1F0F DUP2 DUP5 PUSH2 0x1ACB JUMP JUMPDEST SWAP1 POP SWAP5 SWAP4 POP POP POP POP JUMP JUMPDEST PUSH2 0x1F22 DUP2 PUSH2 0x1A60 JUMP JUMPDEST DUP2 EQ PUSH2 0x1F2C JUMPI PUSH0 PUSH0 REVERT JUMPDEST POP JUMP JUMPDEST PUSH0 DUP2 CALLDATALOAD SWAP1 POP PUSH2 0x1F3D DUP2 PUSH2 0x1F19 JUMP JUMPDEST SWAP3 SWAP2 POP POP JUMP JUMPDEST PUSH0 PUSH0 PUSH1 0x40 DUP4 DUP6 SUB SLT ISZERO PUSH2 0x1F59 JUMPI PUSH2 0x1F58 PUSH2 0x19D8 JUMP JUMPDEST JUMPDEST PUSH0 PUSH2 0x1F66 DUP6 DUP3 DUP7 ADD PUSH2 0x1BEF JUMP JUMPDEST SWAP3 POP POP PUSH1 0x20 PUSH2 0x1F77 DUP6 DUP3 DUP7 ADD PUSH2 0x1F2F JUMP JUMPDEST SWAP2 POP POP SWAP3 POP SWAP3 SWAP1 POP JUMP JUMPDEST PUSH0 PUSH8 0xFFFFFFFFFFFFFFFF DUP3 GT ISZERO PUSH2 0x1F9B JUMPI PUSH2 0x1F9A PUSH2 0x1CD7 JUMP JUMPDEST JUMPDEST PUSH2 0x1FA4 DUP3 PUSH2 0x1ABB JUMP JUMPDEST SWAP1 POP PUSH1 0x20 DUP2 ADD SWAP1 POP SWAP2 SWAP1 POP JUMP JUMPDEST PUSH0 PUSH2 0x1FC3 PUSH2 0x1FBE DUP5 PUSH2 0x1F81 JUMP JUMPDEST PUSH2 0x1D35 JUMP JUMPDEST SWAP1 POP DUP3 DUP2 MSTORE PUSH1 0x20 DUP2 ADD DUP5 DUP5 DUP5 ADD GT ISZERO PUSH2 0x1FDF JUMPI PUSH2 0x1FDE PUSH2 0x1CD3 JUMP JUMPDEST JUMPDEST PUSH2 0x1FEA DUP5 DUP3 DUP6 PUSH2 0x1D7F JUMP JUMPDEST POP SWAP4 SWAP3 POP POP POP JUMP JUMPDEST PUSH0 DUP3 PUSH1 0x1F DUP4 ADD SLT PUSH2 0x2006 JUMPI PUSH2 0x2005 PUSH2 0x1CCF JUMP JUMPDEST JUMPDEST DUP2 CALLDATALOAD PUSH2 0x2016 DUP5 DUP3 PUSH1 0x20 DUP7 ADD PUSH2 0x1FB1 JUMP JUMPDEST SWAP2 POP POP SWAP3 SWAP2 POP POP JUMP JUMPDEST PUSH0 PUSH0 PUSH0 PUSH0 PUSH1 0x80 DUP6 DUP8 SUB SLT ISZERO PUSH2 0x2037 JUMPI PUSH2 0x2036 PUSH2 0x19D8 JUMP JUMPDEST JUMPDEST PUSH0 PUSH2 0x2044 DUP8 DUP3 DUP9 ADD PUSH2 0x1BEF JUMP JUMPDEST SWAP5 POP POP PUSH1 0x20 PUSH2 0x2055 DUP8 DUP3 DUP9 ADD PUSH2 0x1BEF JUMP JUMPDEST SWAP4 POP POP PUSH1 0x40 PUSH2 0x2066 DUP8 DUP3 DUP9 ADD PUSH2 0x1B42 JUMP JUMPDEST SWAP3 POP POP PUSH1 0x60 DUP6 ADD CALLDATALOAD PUSH8 0xFFFFFFFFFFFFFFFF DUP2 GT ISZERO PUSH2 0x2087 JUMPI PUSH2 0x2086 PUSH2 0x19DC JUMP JUMPDEST JUMPDEST PUSH2 0x2093 DUP8 DUP3 DUP9 ADD PUSH2 0x1FF2 JUMP JUMPDEST SWAP2 POP POP SWAP3 SWAP6 SWAP2 SWAP5 POP SWAP3 POP JUMP JUMPDEST PUSH0 PUSH0 PUSH1 0x40 DUP4 DUP6 SUB SLT ISZERO PUSH2 0x20B5 JUMPI PUSH2 0x20B4 PUSH2 0x19D8 JUMP JUMPDEST JUMPDEST PUSH0 PUSH2 0x20C2 DUP6 DUP3 DUP7 ADD PUSH2 0x1BEF JUMP JUMPDEST SWAP3 POP POP PUSH1 0x20 PUSH2 0x20D3 DUP6 DUP3 DUP7 ADD PUSH2 0x1BEF JUMP JUMPDEST SWAP2 POP POP SWAP3 POP SWAP3 SWAP1 POP JUMP JUMPDEST PUSH32 0x4E487B7100000000000000000000000000000000000000000000000000000000 PUSH0 MSTORE PUSH1 0x22 PUSH1 0x4 MSTORE PUSH1 0x24 PUSH0 REVERT JUMPDEST PUSH0 PUSH1 0x2 DUP3 DIV SWAP1 POP PUSH1 0x1 DUP3 AND DUP1 PUSH2 0x2121 JUMPI PUSH1 0x7F DUP3 AND SWAP2 POP JUMPDEST PUSH1 0x20 DUP3 LT DUP2 SUB PUSH2 0x2134 JUMPI PUSH2 0x2133 PUSH2 0x20DD JUMP JUMPDEST JUMPDEST POP SWAP2 SWAP1 POP JUMP JUMPDEST PUSH0 PUSH1 0x60 DUP3 ADD SWAP1 POP PUSH2 0x214D PUSH0 DUP4 ADD DUP7 PUSH2 0x1BB1 JUMP JUMPDEST PUSH2 0x215A PUSH1 0x20 DUP4 ADD DUP6 PUSH2 0x1EAE JUMP JUMPDEST PUSH2 0x2167 PUSH1 0x40 DUP4 ADD DUP5 PUSH2 0x1BB1 JUMP JUMPDEST SWAP5 SWAP4 POP POP POP POP JUMP JUMPDEST PUSH32 0x4170656E6173206F20646F6E6F20706F646520626174616C68617220636F6D20 PUSH0 DUP3 ADD MSTORE PUSH32 0x6573746520506F6B656D6F6E0000000000000000000000000000000000000000 PUSH1 0x20 DUP3 ADD MSTORE POP JUMP JUMPDEST PUSH0 PUSH2 0x21C9 PUSH1 0x2C DUP4 PUSH2 0x1A9D JUMP JUMPDEST SWAP2 POP PUSH2 0x21D4 DUP3 PUSH2 0x216F JUMP JUMPDEST PUSH1 0x40 DUP3 ADD SWAP1 POP SWAP2 SWAP1 POP JUMP JUMPDEST PUSH0 PUSH1 0x20 DUP3 ADD SWAP1 POP DUP2 DUP2 SUB PUSH0 DUP4 ADD MSTORE PUSH2 0x21F6 DUP2 PUSH2 0x21BD JUMP JUMPDEST SWAP1 POP SWAP2 SWAP1 POP JUMP JUMPDEST PUSH32 0x4E487B7100000000000000000000000000000000000000000000000000000000 PUSH0 MSTORE PUSH1 0x32 PUSH1 0x4 MSTORE PUSH1 0x24 PUSH0 REVERT JUMPDEST PUSH32 0x4E487B7100000000000000000000000000000000000000000000000000000000 PUSH0 MSTORE PUSH1 0x11 PUSH1 0x4 MSTORE PUSH1 0x24 PUSH0 REVERT JUMPDEST PUSH0 PUSH2 0x2261 DUP3 PUSH2 0x1B23 JUMP JUMPDEST SWAP2 POP PUSH2 0x226C DUP4 PUSH2 0x1B23 JUMP JUMPDEST SWAP3 POP DUP3 DUP3 ADD SWAP1 POP DUP1 DUP3 GT ISZERO PUSH2 0x2284 JUMPI PUSH2 0x2283 PUSH2 0x222A JUMP JUMPDEST JUMPDEST SWAP3 SWAP2 POP POP JUMP JUMPDEST PUSH32 0x4170656E6173206F20646F6E6F20646F206A6F676F20706F6465206372696172 PUSH0 DUP3 ADD MSTORE PUSH32 0x206E6F766F7320506F6B656D6F6E730000000000000000000000000000000000 PUSH1 0x20 DUP3 ADD MSTORE POP JUMP JUMPDEST PUSH0 PUSH2 0x22E4 PUSH1 0x2F DUP4 PUSH2 0x1A9D JUMP JUMPDEST SWAP2 POP PUSH2 0x22EF DUP3 PUSH2 0x228A JUMP JUMPDEST PUSH1 0x40 DUP3 ADD SWAP1 POP SWAP2 SWAP1 POP JUMP JUMPDEST PUSH0 PUSH1 0x20 DUP3 ADD SWAP1 POP DUP2 DUP2 SUB PUSH0 DUP4 ADD MSTORE PUSH2 0x2311 DUP2 PUSH2 0x22D8 JUMP JUMPDEST SWAP1 POP SWAP2 SWAP1 POP JUMP JUMPDEST PUSH0 DUP2 SWAP1 POP DUP2 PUSH0 MSTORE PUSH1 0x20 PUSH0 KECCAK256 SWAP1 POP SWAP2 SWAP1 POP JUMP JUMPDEST PUSH0 PUSH1 0x20 PUSH1 0x1F DUP4 ADD DIV SWAP1 POP SWAP2 SWAP1 POP JUMP JUMPDEST PUSH0 DUP3 DUP3 SHL SWAP1 POP SWAP3 SWAP2 POP POP JUMP JUMPDEST PUSH0 PUSH1 0x8 DUP4 MUL PUSH2 0x2374 PUSH32 0xFFFFFFFFFFFFFFFFFFFFFFFFFFFFFFFFFFFFFFFFFFFFFFFFFFFFFFFFFFFFFFFF DUP3 PUSH2 0x2339 JUMP JUMPDEST PUSH2 0x237E DUP7 DUP4 PUSH2 0x2339 JUMP JUMPDEST SWAP6 POP DUP1 NOT DUP5 AND SWAP4 POP DUP1 DUP7 AND DUP5 OR SWAP3 POP POP POP SWAP4 SWAP3 POP POP POP JUMP JUMPDEST PUSH0 DUP2 SWAP1 POP SWAP2 SWAP1 POP JUMP JUMPDEST PUSH0 PUSH2 0x23B9 PUSH2 0x23B4 PUSH2 0x23AF DUP5 PUSH2 0x1B23 JUMP JUMPDEST PUSH2 0x2396 JUMP JUMPDEST PUSH2 0x1B23 JUMP JUMPDEST SWAP1 POP SWAP2 SWAP1 POP JUMP JUMPDEST PUSH0 DUP2 SWAP1 POP SWAP2 SWAP1 POP JUMP JUMPDEST PUSH2 0x23D2 DUP4 PUSH2 0x239F JUMP JUMPDEST PUSH2 0x23E6 PUSH2 0x23DE DUP3 PUSH2 0x23C0 JUMP JUMPDEST DUP5 DUP5 SLOAD PUSH2 0x2345 JUMP JUMPDEST DUP3 SSTORE POP POP POP POP JUMP JUMPDEST PUSH0 PUSH0 SWAP1 POP SWAP1 JUMP JUMPDEST PUSH2 0x23FD PUSH2 0x23EE JUMP JUMPDEST PUSH2 0x2408 DUP2 DUP5 DUP5 PUSH2 0x23C9 JUMP JUMPDEST POP POP POP JUMP JUMPDEST JUMPDEST DUP2 DUP2 LT ISZERO PUSH2 0x242B JUMPI PUSH2 0x2420 PUSH0 DUP3 PUSH2 0x23F5 JUMP JUMPDEST PUSH1 0x1 DUP2 ADD SWAP1 POP PUSH2 0x240E JUMP JUMPDEST POP POP JUMP JUMPDEST PUSH1 0x1F DUP3 GT ISZERO PUSH2 0x2470 JUMPI PUSH2 0x2441 DUP2 PUSH2 0x2318 JUMP JUMPDEST PUSH2 0x244A DUP5 PUSH2 0x232A JUMP JUMPDEST DUP2 ADD PUSH1 0x20 DUP6 LT ISZERO PUSH2 0x2459 JUMPI DUP2 SWAP1 POP JUMPDEST PUSH2 0x246D PUSH2 0x2465 DUP6 PUSH2 0x232A JUMP JUMPDEST DUP4 ADD DUP3 PUSH2 0x240D JUMP JUMPDEST POP POP JUMPDEST POP POP POP JUMP JUMPDEST PUSH0 DUP3 DUP3 SHR SWAP1 POP SWAP3 SWAP2 POP POP JUMP JUMPDEST PUSH0 PUSH2 0x2490 PUSH0 NOT DUP5 PUSH1 0x8 MUL PUSH2 0x2475 JUMP JUMPDEST NOT DUP1 DUP4 AND SWAP2 POP POP SWAP3 SWAP2 POP POP JUMP JUMPDEST PUSH0 PUSH2 0x24A8 DUP4 DUP4 PUSH2 0x2481 JUMP JUMPDEST SWAP2 POP DUP3 PUSH1 0x2 MUL DUP3 OR SWAP1 POP SWAP3 SWAP2 POP POP JUMP JUMPDEST PUSH2 0x24C1 DUP3 PUSH2 0x1A93 JUMP JUMPDEST PUSH8 0xFFFFFFFFFFFFFFFF DUP2 GT ISZERO PUSH2 0x24DA JUMPI PUSH2 0x24D9 PUSH2 0x1CD7 JUMP JUMPDEST JUMPDEST PUSH2 0x24E4 DUP3 SLOAD PUSH2 0x210A JUMP JUMPDEST PUSH2 0x24EF DUP3 DUP3 DUP6 PUSH2 0x242F JUMP JUMPDEST PUSH0 PUSH1 0x20 SWAP1 POP PUSH1 0x1F DUP4 GT PUSH1 0x1 DUP2 EQ PUSH2 0x2520 JUMPI PUSH0 DUP5 ISZERO PUSH2 0x250E JUMPI DUP3 DUP8 ADD MLOAD SWAP1 POP JUMPDEST PUSH2 0x2518 DUP6 DUP3 PUSH2 0x249D JUMP JUMPDEST DUP7 SSTORE POP PUSH2 0x257F JUMP JUMPDEST PUSH1 0x1F NOT DUP5 AND PUSH2 0x252E DUP7 PUSH2 0x2318 JUMP JUMPDEST PUSH0 JUMPDEST DUP3 DUP2 LT ISZERO PUSH2 0x2555 JUMPI DUP5 DUP10 ADD MLOAD DUP3 SSTORE PUSH1 0x1 DUP3 ADD SWAP2 POP PUSH1 0x20 DUP6 ADD SWAP5 POP PUSH1 0x20 DUP2 ADD SWAP1 POP PUSH2 0x2530 JUMP JUMPDEST DUP7 DUP4 LT ISZERO PUSH2 0x2572 JUMPI DUP5 DUP10 ADD MLOAD PUSH2 0x256E PUSH1 0x1F DUP10 AND DUP3 PUSH2 0x2481 JUMP JUMPDEST DUP4 SSTORE POP JUMPDEST PUSH1 0x1 PUSH1 0x2 DUP9 MUL ADD DUP9 SSTORE POP POP POP JUMPDEST POP POP POP POP POP POP JUMP JUMPDEST PUSH0 DUP2 SWAP1 POP SWAP3 SWAP2 POP POP JUMP JUMPDEST PUSH0 PUSH2 0x259B DUP3 PUSH2 0x1A93 JUMP JUMPDEST PUSH2 0x25A5 DUP2 DUP6 PUSH2 0x2587 JUMP JUMPDEST SWAP4 POP PUSH2 0x25B5 DUP2 DUP6 PUSH1 0x20 DUP7 ADD PUSH2 0x1AAD JUMP JUMPDEST DUP1 DUP5 ADD SWAP2 POP POP SWAP3 SWAP2 POP POP JUMP JUMPDEST PUSH0 PUSH2 0x25CC DUP3 DUP6 PUSH2 0x2591 JUMP JUMPDEST SWAP2 POP PUSH2 0x25D8 DUP3 DUP5 PUSH2 0x2591 JUMP JUMPDEST SWAP2 POP DUP2 SWAP1 POP SWAP4 SWAP3 POP POP POP JUMP JUMPDEST PUSH0 DUP2 MLOAD SWAP1 POP SWAP2 SWAP1 POP JUMP JUMPDEST PUSH0 DUP3 DUP3 MSTORE PUSH1 0x20 DUP3 ADD SWAP1 POP SWAP3 SWAP2 POP POP JUMP JUMPDEST PUSH0 PUSH2 0x2608 DUP3 PUSH2 0x25E4 JUMP JUMPDEST PUSH2 0x2612 DUP2 DUP6 PUSH2 0x25EE JUMP JUMPDEST SWAP4 POP PUSH2 0x2622 DUP2 DUP6 PUSH1 0x20 DUP7 ADD PUSH2 0x1AAD JUMP JUMPDEST PUSH2 0x262B DUP2 PUSH2 0x1ABB JUMP JUMPDEST DUP5 ADD SWAP2 POP POP SWAP3 SWAP2 POP POP JUMP JUMPDEST PUSH0 PUSH1 0x80 DUP3 ADD SWAP1 POP PUSH2 0x2649 PUSH0 DUP4 ADD DUP8 PUSH2 0x1BB1 JUMP JUMPDEST PUSH2 0x2656 PUSH1 0x20 DUP4 ADD DUP7 PUSH2 0x1BB1 JUMP JUMPDEST PUSH2 0x2663 PUSH1 0x40 DUP4 ADD DUP6 PUSH2 0x1EAE JUMP JUMPDEST DUP2 DUP2 SUB PUSH1 0x60 DUP4 ADD MSTORE PUSH2 0x2675 DUP2 DUP5 PUSH2 0x25FE JUMP JUMPDEST SWAP1 POP SWAP6 SWAP5 POP POP POP POP POP JUMP JUMPDEST PUSH0 DUP2 MLOAD SWAP1 POP PUSH2 0x268E DUP2 PUSH2 0x1A0B JUMP JUMPDEST SWAP3 SWAP2 POP POP JUMP JUMPDEST PUSH0 PUSH1 0x20 DUP3 DUP5 SUB SLT ISZERO PUSH2 0x26A9 JUMPI PUSH2 0x26A8 PUSH2 0x19D8 JUMP JUMPDEST JUMPDEST PUSH0 PUSH2 0x26B6 DUP5 DUP3 DUP6 ADD PUSH2 0x2680 JUMP JUMPDEST SWAP2 POP POP SWAP3 SWAP2 POP POP JUMP JUMPDEST PUSH32 0x4E487B7100000000000000000000000000000000000000000000000000000000 PUSH0 MSTORE PUSH1 0x12 PUSH1 0x4 MSTORE PUSH1 0x24 PUSH0 REVERT JUMPDEST PUSH0 PUSH1 0x40 DUP3 ADD SWAP1 POP PUSH2 0x26FF PUSH0 DUP4 ADD DUP6 PUSH2 0x1BB1 JUMP JUMPDEST PUSH2 0x270C PUSH1 0x20 DUP4 ADD DUP5 PUSH2 0x1EAE JUMP JUMPDEST SWAP4 SWAP3 POP POP POP JUMP INVALID LOG2 PUSH5 0x6970667358 0x22 SLT KECCAK256 LT 0xB8 OR 0xF 0x4D EXTCODECOPY POP 0xFC SWAP3 TSTORE MSTORE GASPRICE MSTORE8 PUSH0 RJUMP 0xD58D NOT 0xBE CALLDATALOAD 0x26 SLT GAS COINBASE 0xBA DUP4 0xA5 NOT PUSH17 0x957D8E64736F6C634300081E0033000000 "
		},
		"gasEstimates": {
			"creation": {
				"codeDepositCost": "2011400",
				"executionCost": "infinite",
				"totalCost": "infinite"
			},
			"external": {
				"approve(address,uint256)": "infinite",
				"balanceOf(address)": "infinite",
				"battle(uint256,uint256)": "infinite",
				"createNewPokemon(string,address,string)": "infinite",
				"gameOwner()": "2618",
				"getApproved(uint256)": "infinite",
				"isApprovedForAll(address,address)": "infinite",
				"name()": "infinite",
				"ownerOf(uint256)": "infinite",
				"pokemons(uint256)": "infinite",
				"safeTransferFrom(address,address,uint256)": "infinite",
				"safeTransferFrom(address,address,uint256,bytes)": "infinite",
				"setApprovalForAll(address,bool)": "infinite",
				"supportsInterface(bytes4)": "787",
				"symbol()": "infinite",
				"tokenURI(uint256)": "infinite",
				"transferFrom(address,address,uint256)": "infinite"
			}
		},
		"methodIdentifiers": {
			"approve(address,uint256)": "095ea7b3",
			"balanceOf(address)": "70a08231",
			"battle(uint256,uint256)": "2a0c5221",
			"createNewPokemon(string,address,string)": "555072de",
			"gameOwner()": "f6b12f28",
			"getApproved(uint256)": "081812fc",
			"isApprovedForAll(address,address)": "e985e9c5",
			"name()": "06fdde03",
			"ownerOf(uint256)": "6352211e",
			"pokemons(uint256)": "85831079",
			"safeTransferFrom(address,address,uint256)": "42842e0e",
			"safeTransferFrom(address,address,uint256,bytes)": "b88d4fde",
			"setApprovalForAll(address,bool)": "a22cb465",
			"supportsInterface(bytes4)": "01ffc9a7",
			"symbol()": "95d89b41",
			"tokenURI(uint256)": "c87b56dd",
			"transferFrom(address,address,uint256)": "23b872dd"
		}
	},
	"abi": [
		{
			"inputs": [],
			"stateMutability": "nonpayable",
			"type": "constructor"
		},
		{
			"inputs": [
				{
					"internalType": "address",
					"name": "sender",
					"type": "address"
				},
				{
					"internalType": "uint256",
					"name": "tokenId",
					"type": "uint256"
				},
				{
					"internalType": "address",
					"name": "owner",
					"type": "address"
				}
			],
			"name": "ERC721IncorrectOwner",
			"type": "error"
		},
		{
			"inputs": [
				{
					"internalType": "address",
					"name": "operator",
					"type": "address"
				},
				{
					"internalType": "uint256",
					"name": "tokenId",
					"type": "uint256"
				}
			],
			"name": "ERC721InsufficientApproval",
			"type": "error"
		},
		{
			"inputs": [
				{
					"internalType": "address",
					"name": "approver",
					"type": "address"
				}
			],
			"name": "ERC721InvalidApprover",
			"type": "error"
		},
		{
			"inputs": [
				{
					"internalType": "address",
					"name": "operator",
					"type": "address"
				}
			],
			"name": "ERC721InvalidOperator",
			"type": "error"
		},
		{
			"inputs": [
				{
					"internalType": "address",
					"name": "owner",
					"type": "address"
				}
			],
			"name": "ERC721InvalidOwner",
			"type": "error"
		},
		{
			"inputs": [
				{
					"internalType": "address",
					"name": "receiver",
					"type": "address"
				}
			],
			"name": "ERC721InvalidReceiver",
			"type": "error"
		},
		{
			"inputs": [
				{
					"internalType": "address",
					"name": "sender",
					"type": "address"
				}
			],
			"name": "ERC721InvalidSender",
			"type": "error"
		},
		{
			"inputs": [
				{
					"internalType": "uint256",
					"name": "tokenId",
					"type": "uint256"
				}
			],
			"name": "ERC721NonexistentToken",
			"type": "error"
		},
		{
			"anonymous": false,
			"inputs": [
				{
					"indexed": true,
					"internalType": "address",
					"name": "owner",
					"type": "address"
				},
				{
					"indexed": true,
					"internalType": "address",
					"name": "approved",
					"type": "address"
				},
				{
					"indexed": true,
					"internalType": "uint256",
					"name": "tokenId",
					"type": "uint256"
				}
			],
			"name": "Approval",
			"type": "event"
		},
		{
			"anonymous": false,
			"inputs": [
				{
					"indexed": true,
					"internalType": "address",
					"name": "owner",
					"type": "address"
				},
				{
					"indexed": true,
					"internalType": "address",
					"name": "operator",
					"type": "address"
				},
				{
					"indexed": false,
					"internalType": "bool",
					"name": "approved",
					"type": "bool"
				}
			],
			"name": "ApprovalForAll",
			"type": "event"
		},
		{
			"anonymous": false,
			"inputs": [
				{
					"indexed": true,
					"internalType": "address",
					"name": "from",
					"type": "address"
				},
				{
					"indexed": true,
					"internalType": "address",
					"name": "to",
					"type": "address"
				},
				{
					"indexed": true,
					"internalType": "uint256",
					"name": "tokenId",
					"type": "uint256"
				}
			],
			"name": "Transfer",
			"type": "event"
		},
		{
			"inputs": [
				{
					"internalType": "address",
					"name": "to",
					"type": "address"
				},
				{
					"internalType": "uint256",
					"name": "tokenId",
					"type": "uint256"
				}
			],
			"name": "approve",
			"outputs": [],
			"stateMutability": "nonpayable",
			"type": "function"
		},
		{
			"inputs": [
				{
					"internalType": "address",
					"name": "owner",
					"type": "address"
				}
			],
			"name": "balanceOf",
			"outputs": [
				{
					"internalType": "uint256",
					"name": "",
					"type": "uint256"
				}
			],
			"stateMutability": "view",
			"type": "function"
		},
		{
			"inputs": [
				{
					"internalType": "uint256",
					"name": "_attackingPokemon",
					"type": "uint256"
				},
				{
					"internalType": "uint256",
					"name": "_defendingPokemon",
					"type": "uint256"
				}
			],
			"name": "battle",
			"outputs": [],
			"stateMutability": "nonpayable",
			"type": "function"
		},
		{
			"inputs": [
				{
					"internalType": "string",
					"name": "_name",
					"type": "string"
				},
				{
					"internalType": "address",
					"name": "_to",
					"type": "address"
				},
				{
					"internalType": "string",
					"name": "_img",
					"type": "string"
				}
			],
			"name": "createNewPokemon",
			"outputs": [],
			"stateMutability": "nonpayable",
			"type": "function"
		},
		{
			"inputs": [],
			"name": "gameOwner",
			"outputs": [
				{
					"internalType": "address",
					"name": "",
					"type": "address"
				}
			],
			"stateMutability": "view",
			"type": "function"
		},
		{
			"inputs": [
				{
					"internalType": "uint256",
					"name": "tokenId",
					"type": "uint256"
				}
			],
			"name": "getApproved",
			"outputs": [
				{
					"internalType": "address",
					"name": "",
					"type": "address"
				}
			],
			"stateMutability": "view",
			"type": "function"
		},
		{
			"inputs": [
				{
					"internalType": "address",
					"name": "owner",
					"type": "address"
				},
				{
					"internalType": "address",
					"name": "operator",
					"type": "address"
				}
			],
			"name": "isApprovedForAll",
			"outputs": [
				{
					"internalType": "bool",
					"name": "",
					"type": "bool"
				}
			],
			"stateMutability": "view",
			"type": "function"
		},
		{
			"inputs": [],
			"name": "name",
			"outputs": [
				{
					"internalType": "string",
					"name": "",
					"type": "string"
				}
			],
			"stateMutability": "view",
			"type": "function"
		},
		{
			"inputs": [
				{
					"internalType": "uint256",
					"name": "tokenId",
					"type": "uint256"
				}
			],
			"name": "ownerOf",
			"outputs": [
				{
					"internalType": "address",
					"name": "",
					"type": "address"
				}
			],
			"stateMutability": "view",
			"type": "function"
		},
		{
			"inputs": [
				{
					"internalType": "uint256",
					"name": "",
					"type": "uint256"
				}
			],
			"name": "pokemons",
			"outputs": [
				{
					"internalType": "string",
					"name": "name",
					"type": "string"
				},
				{
					"internalType": "uint256",
					"name": "level",
					"type": "uint256"
				},
				{
					"internalType": "string",
					"name": "img",
					"type": "string"
				}
			],
			"stateMutability": "view",
			"type": "function"
		},
		{
			"inputs": [
				{
					"internalType": "address",
					"name": "from",
					"type": "address"
				},
				{
					"internalType": "address",
					"name": "to",
					"type": "address"
				},
				{
					"internalType": "uint256",
					"name": "tokenId",
					"type": "uint256"
				}
			],
			"name": "safeTransferFrom",
			"outputs": [],
			"stateMutability": "nonpayable",
			"type": "function"
		},
		{
			"inputs": [
				{
					"internalType": "address",
					"name": "from",
					"type": "address"
				},
				{
					"internalType": "address",
					"name": "to",
					"type": "address"
				},
				{
					"internalType": "uint256",
					"name": "tokenId",
					"type": "uint256"
				},
				{
					"internalType": "bytes",
					"name": "data",
					"type": "bytes"
				}
			],
			"name": "safeTransferFrom",
			"outputs": [],
			"stateMutability": "nonpayable",
			"type": "function"
		},
		{
			"inputs": [
				{
					"internalType": "address",
					"name": "operator",
					"type": "address"
				},
				{
					"internalType": "bool",
					"name": "approved",
					"type": "bool"
				}
			],
			"name": "setApprovalForAll",
			"outputs": [],
			"stateMutability": "nonpayable",
			"type": "function"
		},
		{
			"inputs": [
				{
					"internalType": "bytes4",
					"name": "interfaceId",
					"type": "bytes4"
				}
			],
			"name": "supportsInterface",
			"outputs": [
				{
					"internalType": "bool",
					"name": "",
					"type": "bool"
				}
			],
			"stateMutability": "view",
			"type": "function"
		},
		{
			"inputs": [],
			"name": "symbol",
			"outputs": [
				{
					"internalType": "string",
					"name": "",
					"type": "string"
				}
			],
			"stateMutability": "view",
			"type": "function"
		},
		{
			"inputs": [
				{
					"internalType": "uint256",
					"name": "tokenId",
					"type": "uint256"
				}
			],
			"name": "tokenURI",
			"outputs": [
				{
					"internalType": "string",
					"name": "",
					"type": "string"
				}
			],
			"stateMutability": "view",
			"type": "function"
		},
		{
			"inputs": [
				{
					"internalType": "address",
					"name": "from",
					"type": "address"
				},
				{
					"internalType": "address",
					"name": "to",
					"type": "address"
				},
				{
					"internalType": "uint256",
					"name": "tokenId",
					"type": "uint256"
				}
			],
			"name": "transferFrom",
			"outputs": [],
			"stateMutability": "nonpayable",
			"type": "function"
		}
	]
}